{
  "_format": "hh-sol-artifact-1",
  "contractName": "CrossChainMinter",
  "sourceName": "contracts/CrossChainMinter.sol",
  "abi": [
    {
      "inputs": [
        {
          "internalType": "address",
          "name": "_router",
          "type": "address"
        },
        {
          "internalType": "address",
          "name": "_linkToken",
          "type": "address"
        },
        {
          "internalType": "uint64",
          "name": "_hubChainSelector",
          "type": "uint64"
        },
        {
          "internalType": "address",
          "name": "_hubContract",
          "type": "address"
        },
        {
          "internalType": "string",
          "name": "_name",
          "type": "string"
        },
        {
          "internalType": "string",
          "name": "_symbol",
          "type": "string"
        }
      ],
      "stateMutability": "nonpayable",
      "type": "constructor"
    },
    {
      "inputs": [],
      "name": "AccessControlBadConfirmation",
      "type": "error"
    },
    {
      "inputs": [
        {
          "internalType": "address",
          "name": "account",
          "type": "address"
        },
        {
          "internalType": "bytes32",
          "name": "neededRole",
          "type": "bytes32"
        }
      ],
      "name": "AccessControlUnauthorizedAccount",
      "type": "error"
    },
    {
      "inputs": [
        {
          "internalType": "uint256",
          "name": "healthFactor",
          "type": "uint256"
        },
        {
          "internalType": "uint256",
          "name": "minimum",
          "type": "uint256"
        }
      ],
      "name": "BelowMinHealthFactor",
      "type": "error"
    },
    {
      "inputs": [
        {
          "internalType": "address",
          "name": "token",
          "type": "address"
        }
      ],
      "name": "CollateralNotSupported",
      "type": "error"
    },
    {
      "inputs": [
        {
          "internalType": "address",
          "name": "spender",
          "type": "address"
        },
        {
          "internalType": "uint256",
          "name": "allowance",
          "type": "uint256"
        },
        {
          "internalType": "uint256",
          "name": "needed",
          "type": "uint256"
        }
      ],
      "name": "ERC20InsufficientAllowance",
      "type": "error"
    },
    {
      "inputs": [
        {
          "internalType": "address",
          "name": "sender",
          "type": "address"
        },
        {
          "internalType": "uint256",
          "name": "balance",
          "type": "uint256"
        },
        {
          "internalType": "uint256",
          "name": "needed",
          "type": "uint256"
        }
      ],
      "name": "ERC20InsufficientBalance",
      "type": "error"
    },
    {
      "inputs": [
        {
          "internalType": "address",
          "name": "approver",
          "type": "address"
        }
      ],
      "name": "ERC20InvalidApprover",
      "type": "error"
    },
    {
      "inputs": [
        {
          "internalType": "address",
          "name": "receiver",
          "type": "address"
        }
      ],
      "name": "ERC20InvalidReceiver",
      "type": "error"
    },
    {
      "inputs": [
        {
          "internalType": "address",
          "name": "sender",
          "type": "address"
        }
      ],
      "name": "ERC20InvalidSender",
      "type": "error"
    },
    {
      "inputs": [
        {
          "internalType": "address",
          "name": "spender",
          "type": "address"
        }
      ],
      "name": "ERC20InvalidSpender",
      "type": "error"
    },
    {
      "inputs": [],
      "name": "EnforcedPause",
      "type": "error"
    },
    {
      "inputs": [],
      "name": "ExpectedPause",
      "type": "error"
    },
    {
      "inputs": [
        {
          "internalType": "uint256",
          "name": "provided",
          "type": "uint256"
        },
        {
          "internalType": "uint256",
          "name": "required",
          "type": "uint256"
        }
      ],
      "name": "InsufficientCollateral",
      "type": "error"
    },
    {
      "inputs": [
        {
          "internalType": "uint256",
          "name": "requested",
          "type": "uint256"
        },
        {
          "internalType": "uint256",
          "name": "available",
          "type": "uint256"
        }
      ],
      "name": "InsufficientMintedTokens",
      "type": "error"
    },
    {
      "inputs": [
        {
          "internalType": "uint256",
          "name": "ratio",
          "type": "uint256"
        }
      ],
      "name": "InvalidCollateralizationRatio",
      "type": "error"
    },
    {
      "inputs": [
        {
          "internalType": "address",
          "name": "router",
          "type": "address"
        }
      ],
      "name": "InvalidRouter",
      "type": "error"
    },
    {
      "inputs": [
        {
          "internalType": "uint256",
          "name": "healthFactor",
          "type": "uint256"
        }
      ],
      "name": "PositionNotLiquidatable",
      "type": "error"
    },
    {
      "inputs": [],
      "name": "ReentrancyGuardReentrantCall",
      "type": "error"
    },
    {
      "inputs": [
        {
          "internalType": "bytes32",
          "name": "requestId",
          "type": "bytes32"
        }
      ],
      "name": "RequestNotFound",
      "type": "error"
    },
    {
      "inputs": [
        {
          "internalType": "address",
          "name": "token",
          "type": "address"
        }
      ],
      "name": "SafeERC20FailedOperation",
      "type": "error"
    },
    {
      "inputs": [
        {
          "internalType": "address",
          "name": "caller",
          "type": "address"
        }
      ],
      "name": "UnauthorizedAccess",
      "type": "error"
    },
    {
      "anonymous": false,
      "inputs": [
        {
          "indexed": true,
          "internalType": "address",
          "name": "owner",
          "type": "address"
        },
        {
          "indexed": true,
          "internalType": "address",
          "name": "spender",
          "type": "address"
        },
        {
          "indexed": false,
          "internalType": "uint256",
          "name": "value",
          "type": "uint256"
        }
      ],
      "name": "Approval",
      "type": "event"
    },
    {
      "anonymous": false,
      "inputs": [
        {
          "indexed": true,
          "internalType": "bytes32",
          "name": "requestId",
          "type": "bytes32"
        },
        {
          "indexed": true,
          "internalType": "address",
          "name": "user",
          "type": "address"
        },
        {
          "indexed": false,
          "internalType": "uint256",
          "name": "burnAmount",
          "type": "uint256"
        },
        {
          "indexed": false,
          "internalType": "uint256",
          "name": "collateralToReturn",
          "type": "uint256"
        }
      ],
      "name": "BurnRequested",
      "type": "event"
    },
    {
      "anonymous": false,
      "inputs": [
        {
          "indexed": true,
          "internalType": "address",
          "name": "token",
          "type": "address"
        },
        {
          "indexed": false,
          "internalType": "uint256",
          "name": "collateralizationRatio",
          "type": "uint256"
        },
        {
          "indexed": false,
          "internalType": "uint256",
          "name": "liquidationRatio",
          "type": "uint256"
        }
      ],
      "name": "CollateralAdded",
      "type": "event"
    },
    {
      "anonymous": false,
      "inputs": [
        {
          "indexed": true,
          "internalType": "address",
          "name": "user",
          "type": "address"
        },
        {
          "indexed": false,
          "internalType": "uint256",
          "name": "oldHealthFactor",
          "type": "uint256"
        },
        {
          "indexed": false,
          "internalType": "uint256",
          "name": "newHealthFactor",
          "type": "uint256"
        }
      ],
      "name": "HealthFactorUpdated",
      "type": "event"
    },
    {
      "anonymous": false,
      "inputs": [
        {
          "indexed": true,
          "internalType": "bytes32",
          "name": "requestId",
          "type": "bytes32"
        },
        {
          "indexed": true,
          "internalType": "address",
          "name": "user",
          "type": "address"
        },
        {
          "indexed": true,
          "internalType": "address",
          "name": "collateralToken",
          "type": "address"
        },
        {
          "indexed": false,
          "internalType": "uint256",
          "name": "collateralAmount",
          "type": "uint256"
        },
        {
          "indexed": false,
          "internalType": "uint256",
          "name": "mintAmount",
          "type": "uint256"
        }
      ],
      "name": "MintRequested",
      "type": "event"
    },
    {
      "anonymous": false,
      "inputs": [
        {
          "indexed": true,
          "internalType": "address",
          "name": "from",
          "type": "address"
        },
        {
          "indexed": true,
          "internalType": "address",
          "name": "to",
          "type": "address"
        }
      ],
      "name": "OwnershipTransferRequested",
      "type": "event"
    },
    {
      "anonymous": false,
      "inputs": [
        {
          "indexed": true,
          "internalType": "address",
          "name": "from",
          "type": "address"
        },
        {
          "indexed": true,
          "internalType": "address",
          "name": "to",
          "type": "address"
        }
      ],
      "name": "OwnershipTransferred",
      "type": "event"
    },
    {
      "anonymous": false,
      "inputs": [
        {
          "indexed": false,
          "internalType": "address",
          "name": "account",
          "type": "address"
        }
      ],
      "name": "Paused",
      "type": "event"
    },
    {
      "anonymous": false,
      "inputs": [
        {
          "indexed": true,
          "internalType": "address",
          "name": "user",
          "type": "address"
        },
        {
          "indexed": true,
          "internalType": "address",
          "name": "liquidator",
          "type": "address"
        },
        {
          "indexed": true,
          "internalType": "address",
          "name": "collateralToken",
          "type": "address"
        },
        {
          "indexed": false,
          "internalType": "uint256",
          "name": "collateralLiquidated",
          "type": "uint256"
        },
        {
          "indexed": false,
          "internalType": "uint256",
          "name": "debtRepaid",
          "type": "uint256"
        }
      ],
      "name": "PositionLiquidated",
      "type": "event"
    },
    {
      "anonymous": false,
      "inputs": [
        {
          "indexed": true,
          "internalType": "bytes32",
          "name": "operationId",
          "type": "bytes32"
        },
        {
          "indexed": true,
          "internalType": "address",
          "name": "token",
          "type": "address"
        },
        {
          "indexed": false,
          "internalType": "uint256",
          "name": "amount",
          "type": "uint256"
        },
        {
          "indexed": false,
          "internalType": "enum CrossChainMinter.RebalanceType",
          "name": "rebalanceType",
          "type": "uint8"
        }
      ],
      "name": "RebalanceInitiated",
      "type": "event"
    },
    {
      "anonymous": false,
      "inputs": [
        {
          "indexed": true,
          "internalType": "bytes32",
          "name": "role",
          "type": "bytes32"
        },
        {
          "indexed": true,
          "internalType": "bytes32",
          "name": "previousAdminRole",
          "type": "bytes32"
        },
        {
          "indexed": true,
          "internalType": "bytes32",
          "name": "newAdminRole",
          "type": "bytes32"
        }
      ],
      "name": "RoleAdminChanged",
      "type": "event"
    },
    {
      "anonymous": false,
      "inputs": [
        {
          "indexed": true,
          "internalType": "bytes32",
          "name": "role",
          "type": "bytes32"
        },
        {
          "indexed": true,
          "internalType": "address",
          "name": "account",
          "type": "address"
        },
        {
          "indexed": true,
          "internalType": "address",
          "name": "sender",
          "type": "address"
        }
      ],
      "name": "RoleGranted",
      "type": "event"
    },
    {
      "anonymous": false,
      "inputs": [
        {
          "indexed": true,
          "internalType": "bytes32",
          "name": "role",
          "type": "bytes32"
        },
        {
          "indexed": true,
          "internalType": "address",
          "name": "account",
          "type": "address"
        },
        {
          "indexed": true,
          "internalType": "address",
          "name": "sender",
          "type": "address"
        }
      ],
      "name": "RoleRevoked",
      "type": "event"
    },
    {
      "anonymous": false,
      "inputs": [
        {
          "indexed": true,
          "internalType": "bytes32",
          "name": "requestId",
          "type": "bytes32"
        },
        {
          "indexed": true,
          "internalType": "address",
          "name": "user",
          "type": "address"
        },
        {
          "indexed": false,
          "internalType": "uint256",
          "name": "burnAmount",
          "type": "uint256"
        },
        {
          "indexed": false,
          "internalType": "uint256",
          "name": "collateralReturned",
          "type": "uint256"
        }
      ],
      "name": "TokensBurned",
      "type": "event"
    },
    {
      "anonymous": false,
      "inputs": [
        {
          "indexed": true,
          "internalType": "bytes32",
          "name": "requestId",
          "type": "bytes32"
        },
        {
          "indexed": true,
          "internalType": "address",
          "name": "user",
          "type": "address"
        },
        {
          "indexed": false,
          "internalType": "uint256",
          "name": "mintAmount",
          "type": "uint256"
        },
        {
          "indexed": false,
          "internalType": "uint256",
          "name": "healthFactor",
          "type": "uint256"
        }
      ],
      "name": "TokensMinted",
      "type": "event"
    },
    {
      "anonymous": false,
      "inputs": [
        {
          "indexed": true,
          "internalType": "address",
          "name": "from",
          "type": "address"
        },
        {
          "indexed": true,
          "internalType": "address",
          "name": "to",
          "type": "address"
        },
        {
          "indexed": false,
          "internalType": "uint256",
          "name": "value",
          "type": "uint256"
        }
      ],
      "name": "Transfer",
      "type": "event"
    },
    {
      "anonymous": false,
      "inputs": [
        {
          "indexed": false,
          "internalType": "address",
          "name": "account",
          "type": "address"
        }
      ],
      "name": "Unpaused",
      "type": "event"
    },
    {
      "inputs": [],
      "name": "DEFAULT_ADMIN_ROLE",
      "outputs": [
        {
          "internalType": "bytes32",
          "name": "",
          "type": "bytes32"
        }
      ],
      "stateMutability": "view",
      "type": "function"
    },
    {
      "inputs": [],
      "name": "HUB_ROLE",
      "outputs": [
        {
          "internalType": "bytes32",
          "name": "",
          "type": "bytes32"
        }
      ],
      "stateMutability": "view",
      "type": "function"
    },
    {
      "inputs": [],
      "name": "LIQUIDATION_PENALTY",
      "outputs": [
        {
          "internalType": "uint256",
          "name": "",
          "type": "uint256"
        }
      ],
      "stateMutability": "view",
      "type": "function"
    },
    {
      "inputs": [],
      "name": "LIQUIDATOR_ROLE",
      "outputs": [
        {
          "internalType": "bytes32",
          "name": "",
          "type": "bytes32"
        }
      ],
      "stateMutability": "view",
      "type": "function"
    },
    {
      "inputs": [],
      "name": "MAX_COLLATERALIZATION_RATIO",
      "outputs": [
        {
          "internalType": "uint256",
          "name": "",
          "type": "uint256"
        }
      ],
      "stateMutability": "view",
      "type": "function"
    },
    {
      "inputs": [],
      "name": "MINTER_ROLE",
      "outputs": [
        {
          "internalType": "bytes32",
          "name": "",
          "type": "bytes32"
        }
      ],
      "stateMutability": "view",
      "type": "function"
    },
    {
      "inputs": [],
      "name": "MIN_HEALTH_FACTOR",
      "outputs": [
        {
          "internalType": "uint256",
          "name": "",
          "type": "uint256"
        }
      ],
      "stateMutability": "view",
      "type": "function"
    },
    {
      "inputs": [],
      "name": "PRECISION",
      "outputs": [
        {
          "internalType": "uint256",
          "name": "",
          "type": "uint256"
        }
      ],
      "stateMutability": "view",
      "type": "function"
    },
    {
      "inputs": [],
      "name": "REBALANCE_THRESHOLD",
      "outputs": [
        {
          "internalType": "uint256",
          "name": "",
          "type": "uint256"
        }
      ],
      "stateMutability": "view",
      "type": "function"
    },
    {
      "inputs": [],
      "name": "acceptOwnership",
      "outputs": [],
      "stateMutability": "nonpayable",
      "type": "function"
    },
    {
      "inputs": [
        {
          "internalType": "address",
          "name": "token",
          "type": "address"
        },
        {
          "internalType": "uint256",
          "name": "collateralizationRatio",
          "type": "uint256"
        },
        {
          "internalType": "uint256",
          "name": "liquidationRatio",
          "type": "uint256"
        },
        {
          "internalType": "uint256",
          "name": "maxMintAmount",
          "type": "uint256"
        },
        {
          "internalType": "address",
          "name": "priceFeed",
          "type": "address"
        },
        {
          "internalType": "uint256",
          "name": "stabilityFee",
          "type": "uint256"
        }
      ],
      "name": "addCollateralToken",
      "outputs": [],
      "stateMutability": "nonpayable",
      "type": "function"
    },
    {
      "inputs": [
        {
          "internalType": "address",
          "name": "owner",
          "type": "address"
        },
        {
          "internalType": "address",
          "name": "spender",
          "type": "address"
        }
      ],
      "name": "allowance",
      "outputs": [
        {
          "internalType": "uint256",
          "name": "",
          "type": "uint256"
        }
      ],
      "stateMutability": "view",
      "type": "function"
    },
    {
      "inputs": [
        {
          "internalType": "address",
          "name": "spender",
          "type": "address"
        },
        {
          "internalType": "uint256",
          "name": "value",
          "type": "uint256"
        }
      ],
      "name": "approve",
      "outputs": [
        {
          "internalType": "bool",
          "name": "",
          "type": "bool"
        }
      ],
      "stateMutability": "nonpayable",
      "type": "function"
    },
    {
      "inputs": [
        {
          "internalType": "address",
          "name": "account",
          "type": "address"
        }
      ],
      "name": "balanceOf",
      "outputs": [
        {
          "internalType": "uint256",
          "name": "",
          "type": "uint256"
        }
      ],
      "stateMutability": "view",
      "type": "function"
    },
    {
      "inputs": [
        {
          "internalType": "uint256",
          "name": "value",
          "type": "uint256"
        }
      ],
      "name": "burn",
      "outputs": [],
      "stateMutability": "nonpayable",
      "type": "function"
    },
    {
      "inputs": [
        {
          "internalType": "address",
          "name": "account",
          "type": "address"
        },
        {
          "internalType": "uint256",
          "name": "value",
          "type": "uint256"
        }
      ],
      "name": "burnFrom",
      "outputs": [],
      "stateMutability": "nonpayable",
      "type": "function"
    },
    {
      "inputs": [
        {
          "internalType": "uint256",
          "name": "",
          "type": "uint256"
        }
      ],
      "name": "burnRequestIds",
      "outputs": [
        {
          "internalType": "bytes32",
          "name": "",
          "type": "bytes32"
        }
      ],
      "stateMutability": "view",
      "type": "function"
    },
    {
      "inputs": [
        {
          "internalType": "bytes32",
          "name": "",
          "type": "bytes32"
        }
      ],
      "name": "burnRequests",
      "outputs": [
        {
          "internalType": "bytes32",
          "name": "requestId",
          "type": "bytes32"
        },
        {
          "internalType": "address",
          "name": "user",
          "type": "address"
        },
        {
          "internalType": "uint256",
          "name": "burnAmount",
          "type": "uint256"
        },
        {
          "internalType": "address",
          "name": "collateralToken",
          "type": "address"
        },
        {
          "internalType": "uint256",
          "name": "collateralToReturn",
          "type": "uint256"
        },
        {
          "internalType": "uint64",
          "name": "destinationChain",
          "type": "uint64"
        },
        {
          "internalType": "uint256",
          "name": "timestamp",
          "type": "uint256"
        },
        {
          "internalType": "enum CrossChainMinter.BurnStatus",
          "name": "status",
          "type": "uint8"
        }
      ],
      "stateMutability": "view",
      "type": "function"
    },
    {
      "inputs": [
        {
          "internalType": "address",
          "name": "user",
          "type": "address"
        },
        {
          "internalType": "address",
          "name": "collateralToken",
          "type": "address"
        },
        {
          "internalType": "uint256",
          "name": "collateralAmount",
          "type": "uint256"
        }
      ],
      "name": "calculateMaxMintAmount",
      "outputs": [
        {
          "internalType": "uint256",
          "name": "",
          "type": "uint256"
        }
      ],
      "stateMutability": "view",
      "type": "function"
    },
    {
      "inputs": [
        {
          "components": [
            {
              "internalType": "bytes32",
              "name": "messageId",
              "type": "bytes32"
            },
            {
              "internalType": "uint64",
              "name": "sourceChainSelector",
              "type": "uint64"
            },
            {
              "internalType": "bytes",
              "name": "sender",
              "type": "bytes"
            },
            {
              "internalType": "bytes",
              "name": "data",
              "type": "bytes"
            },
            {
              "components": [
                {
                  "internalType": "address",
                  "name": "token",
                  "type": "address"
                },
                {
                  "internalType": "uint256",
                  "name": "amount",
                  "type": "uint256"
                }
              ],
              "internalType": "struct Client.EVMTokenAmount[]",
              "name": "destTokenAmounts",
              "type": "tuple[]"
            }
          ],
          "internalType": "struct Client.Any2EVMMessage",
          "name": "message",
          "type": "tuple"
        }
      ],
      "name": "ccipReceive",
      "outputs": [],
      "stateMutability": "nonpayable",
      "type": "function"
    },
    {
      "inputs": [
        {
          "internalType": "bytes",
          "name": "",
          "type": "bytes"
        }
      ],
      "name": "checkUpkeep",
      "outputs": [
        {
          "internalType": "bool",
          "name": "upkeepNeeded",
          "type": "bool"
        },
        {
          "internalType": "bytes",
          "name": "performData",
          "type": "bytes"
        }
      ],
      "stateMutability": "view",
      "type": "function"
    },
    {
      "inputs": [
        {
          "internalType": "address",
          "name": "",
          "type": "address"
        }
      ],
      "name": "collateralConfigs",
      "outputs": [
        {
          "internalType": "bool",
          "name": "isSupported",
          "type": "bool"
        },
        {
          "internalType": "uint256",
          "name": "collateralizationRatio",
          "type": "uint256"
        },
        {
          "internalType": "uint256",
          "name": "liquidationRatio",
          "type": "uint256"
        },
        {
          "internalType": "uint256",
          "name": "maxMintAmount",
          "type": "uint256"
        },
        {
          "internalType": "address",
          "name": "priceFeed",
          "type": "address"
        },
        {
          "internalType": "uint256",
          "name": "stabilityFee",
          "type": "uint256"
        },
        {
          "internalType": "bool",
          "name": "isActive",
          "type": "bool"
        }
      ],
      "stateMutability": "view",
      "type": "function"
    },
    {
      "inputs": [
        {
          "internalType": "uint256",
          "name": "",
          "type": "uint256"
        }
      ],
      "name": "collateralTokens",
      "outputs": [
        {
          "internalType": "address",
          "name": "",
          "type": "address"
        }
      ],
      "stateMutability": "view",
      "type": "function"
    },
    {
      "inputs": [],
      "name": "decimals",
      "outputs": [
        {
          "internalType": "uint8",
          "name": "",
          "type": "uint8"
        }
      ],
      "stateMutability": "view",
      "type": "function"
    },
    {
      "inputs": [],
      "name": "emergencyPause",
      "outputs": [],
      "stateMutability": "nonpayable",
      "type": "function"
    },
    {
      "inputs": [],
      "name": "emergencyUnpause",
      "outputs": [],
      "stateMutability": "nonpayable",
      "type": "function"
    },
    {
      "inputs": [
        {
          "internalType": "bytes32",
          "name": "requestId",
          "type": "bytes32"
        }
      ],
      "name": "getBurnRequest",
      "outputs": [
        {
          "components": [
            {
              "internalType": "bytes32",
              "name": "requestId",
              "type": "bytes32"
            },
            {
              "internalType": "address",
              "name": "user",
              "type": "address"
            },
            {
              "internalType": "uint256",
              "name": "burnAmount",
              "type": "uint256"
            },
            {
              "internalType": "address",
              "name": "collateralToken",
              "type": "address"
            },
            {
              "internalType": "uint256",
              "name": "collateralToReturn",
              "type": "uint256"
            },
            {
              "internalType": "uint64",
              "name": "destinationChain",
              "type": "uint64"
            },
            {
              "internalType": "uint256",
              "name": "timestamp",
              "type": "uint256"
            },
            {
              "internalType": "enum CrossChainMinter.BurnStatus",
              "name": "status",
              "type": "uint8"
            }
          ],
          "internalType": "struct CrossChainMinter.BurnRequest",
          "name": "",
          "type": "tuple"
        }
      ],
      "stateMutability": "view",
      "type": "function"
    },
    {
      "inputs": [
        {
          "internalType": "address",
          "name": "token",
          "type": "address"
        }
      ],
      "name": "getCollateralConfig",
      "outputs": [
        {
          "components": [
            {
              "internalType": "bool",
              "name": "isSupported",
              "type": "bool"
            },
            {
              "internalType": "uint256",
              "name": "collateralizationRatio",
              "type": "uint256"
            },
            {
              "internalType": "uint256",
              "name": "liquidationRatio",
              "type": "uint256"
            },
            {
              "internalType": "uint256",
              "name": "maxMintAmount",
              "type": "uint256"
            },
            {
              "internalType": "address",
              "name": "priceFeed",
              "type": "address"
            },
            {
              "internalType": "uint256",
              "name": "stabilityFee",
              "type": "uint256"
            },
            {
              "internalType": "bool",
              "name": "isActive",
              "type": "bool"
            }
          ],
          "internalType": "struct CrossChainMinter.CollateralConfig",
          "name": "",
          "type": "tuple"
        }
      ],
      "stateMutability": "view",
      "type": "function"
    },
    {
      "inputs": [
        {
          "internalType": "bytes32",
          "name": "requestId",
          "type": "bytes32"
        }
      ],
      "name": "getMintRequest",
      "outputs": [
        {
          "components": [
            {
              "internalType": "bytes32",
              "name": "requestId",
              "type": "bytes32"
            },
            {
              "internalType": "address",
              "name": "user",
              "type": "address"
            },
            {
              "internalType": "address",
              "name": "collateralToken",
              "type": "address"
            },
            {
              "internalType": "uint256",
              "name": "collateralAmount",
              "type": "uint256"
            },
            {
              "internalType": "uint256",
              "name": "mintAmount",
              "type": "uint256"
            },
            {
              "internalType": "uint64",
              "name": "sourceChain",
              "type": "uint64"
            },
            {
              "internalType": "uint256",
              "name": "timestamp",
              "type": "uint256"
            },
            {
              "internalType": "enum CrossChainMinter.MintStatus",
              "name": "status",
              "type": "uint8"
            },
            {
              "internalType": "uint256",
              "name": "healthFactor",
              "type": "uint256"
            }
          ],
          "internalType": "struct CrossChainMinter.MintRequest",
          "name": "",
          "type": "tuple"
        }
      ],
      "stateMutability": "view",
      "type": "function"
    },
    {
      "inputs": [],
      "name": "getProtocolStats",
      "outputs": [
        {
          "internalType": "uint256",
          "name": "_totalSupplyMinted",
          "type": "uint256"
        },
        {
          "internalType": "uint256",
          "name": "_totalCollateralValue",
          "type": "uint256"
        },
        {
          "internalType": "uint256",
          "name": "_protocolFees",
          "type": "uint256"
        },
        {
          "internalType": "uint256",
          "name": "_stabilityPoolBalance",
          "type": "uint256"
        },
        {
          "internalType": "uint256",
          "name": "collateralizationRatio",
          "type": "uint256"
        }
      ],
      "stateMutability": "view",
      "type": "function"
    },
    {
      "inputs": [
        {
          "internalType": "bytes32",
          "name": "role",
          "type": "bytes32"
        }
      ],
      "name": "getRoleAdmin",
      "outputs": [
        {
          "internalType": "bytes32",
          "name": "",
          "type": "bytes32"
        }
      ],
      "stateMutability": "view",
      "type": "function"
    },
    {
      "inputs": [],
      "name": "getRouter",
      "outputs": [
        {
          "internalType": "address",
          "name": "",
          "type": "address"
        }
      ],
      "stateMutability": "view",
      "type": "function"
    },
    {
      "inputs": [],
      "name": "getSupportedCollaterals",
      "outputs": [
        {
          "internalType": "address[]",
          "name": "",
          "type": "address[]"
        }
      ],
      "stateMutability": "view",
      "type": "function"
    },
    {
      "inputs": [
        {
          "internalType": "address",
          "name": "user",
          "type": "address"
        },
        {
          "internalType": "address",
          "name": "token",
          "type": "address"
        }
      ],
      "name": "getUserCollateralBalance",
      "outputs": [
        {
          "internalType": "uint256",
          "name": "",
          "type": "uint256"
        }
      ],
      "stateMutability": "view",
      "type": "function"
    },
    {
      "inputs": [
        {
          "internalType": "address",
          "name": "user",
          "type": "address"
        }
      ],
      "name": "getUserPosition",
      "outputs": [
        {
          "internalType": "uint256",
          "name": "totalMinted",
          "type": "uint256"
        },
        {
          "internalType": "uint256",
          "name": "lastUpdateTime",
          "type": "uint256"
        },
        {
          "internalType": "uint256",
          "name": "healthFactor",
          "type": "uint256"
        },
        {
          "internalType": "bool",
          "name": "isActive",
          "type": "bool"
        }
      ],
      "stateMutability": "view",
      "type": "function"
    },
    {
      "inputs": [
        {
          "internalType": "bytes32",
          "name": "role",
          "type": "bytes32"
        },
        {
          "internalType": "address",
          "name": "account",
          "type": "address"
        }
      ],
      "name": "grantRole",
      "outputs": [],
      "stateMutability": "nonpayable",
      "type": "function"
    },
    {
      "inputs": [
        {
          "internalType": "bytes32",
          "name": "role",
          "type": "bytes32"
        },
        {
          "internalType": "address",
          "name": "account",
          "type": "address"
        }
      ],
      "name": "hasRole",
      "outputs": [
        {
          "internalType": "bool",
          "name": "",
          "type": "bool"
        }
      ],
      "stateMutability": "view",
      "type": "function"
    },
    {
      "inputs": [],
      "name": "hubChainSelector",
      "outputs": [
        {
          "internalType": "uint64",
          "name": "",
          "type": "uint64"
        }
      ],
      "stateMutability": "view",
      "type": "function"
    },
    {
      "inputs": [],
      "name": "hubContract",
      "outputs": [
        {
          "internalType": "address",
          "name": "",
          "type": "address"
        }
      ],
      "stateMutability": "view",
      "type": "function"
    },
    {
      "inputs": [
        {
          "internalType": "address",
          "name": "user",
          "type": "address"
        }
      ],
      "name": "isPositionHealthy",
      "outputs": [
        {
          "internalType": "bool",
          "name": "",
          "type": "bool"
        }
      ],
      "stateMutability": "view",
      "type": "function"
    },
    {
      "inputs": [],
      "name": "lastRebalanceTime",
      "outputs": [
        {
          "internalType": "uint256",
          "name": "",
          "type": "uint256"
        }
      ],
      "stateMutability": "view",
      "type": "function"
    },
    {
      "inputs": [],
      "name": "linkToken",
      "outputs": [
        {
          "internalType": "contract LinkTokenInterface",
          "name": "",
          "type": "address"
        }
      ],
      "stateMutability": "view",
      "type": "function"
    },
    {
      "inputs": [
        {
          "internalType": "address",
          "name": "user",
          "type": "address"
        },
        {
          "internalType": "address",
          "name": "collateralToken",
          "type": "address"
        },
        {
          "internalType": "uint256",
          "name": "maxAmount",
          "type": "uint256"
        }
      ],
      "name": "liquidatePosition",
      "outputs": [],
      "stateMutability": "nonpayable",
      "type": "function"
    },
    {
      "inputs": [],
      "name": "liquidationReserve",
      "outputs": [
        {
          "internalType": "uint256",
          "name": "",
          "type": "uint256"
        }
      ],
      "stateMutability": "view",
      "type": "function"
    },
    {
      "inputs": [
        {
          "internalType": "uint256",
          "name": "",
          "type": "uint256"
        }
      ],
      "name": "mintRequestIds",
      "outputs": [
        {
          "internalType": "bytes32",
          "name": "",
          "type": "bytes32"
        }
      ],
      "stateMutability": "view",
      "type": "function"
    },
    {
      "inputs": [
        {
          "internalType": "bytes32",
          "name": "",
          "type": "bytes32"
        }
      ],
      "name": "mintRequests",
      "outputs": [
        {
          "internalType": "bytes32",
          "name": "requestId",
          "type": "bytes32"
        },
        {
          "internalType": "address",
          "name": "user",
          "type": "address"
        },
        {
          "internalType": "address",
          "name": "collateralToken",
          "type": "address"
        },
        {
          "internalType": "uint256",
          "name": "collateralAmount",
          "type": "uint256"
        },
        {
          "internalType": "uint256",
          "name": "mintAmount",
          "type": "uint256"
        },
        {
          "internalType": "uint64",
          "name": "sourceChain",
          "type": "uint64"
        },
        {
          "internalType": "uint256",
          "name": "timestamp",
          "type": "uint256"
        },
        {
          "internalType": "enum CrossChainMinter.MintStatus",
          "name": "status",
          "type": "uint8"
        },
        {
          "internalType": "uint256",
          "name": "healthFactor",
          "type": "uint256"
        }
      ],
      "stateMutability": "view",
      "type": "function"
    },
    {
      "inputs": [],
      "name": "name",
      "outputs": [
        {
          "internalType": "string",
          "name": "",
          "type": "string"
        }
      ],
      "stateMutability": "view",
      "type": "function"
    },
    {
      "inputs": [],
      "name": "owner",
      "outputs": [
        {
          "internalType": "address",
          "name": "",
          "type": "address"
        }
      ],
      "stateMutability": "view",
      "type": "function"
    },
    {
      "inputs": [],
      "name": "paused",
      "outputs": [
        {
          "internalType": "bool",
          "name": "",
          "type": "bool"
        }
      ],
      "stateMutability": "view",
      "type": "function"
    },
    {
      "inputs": [
        {
          "internalType": "bytes",
          "name": "performData",
          "type": "bytes"
        }
      ],
      "name": "performUpkeep",
      "outputs": [],
      "stateMutability": "nonpayable",
      "type": "function"
    },
    {
      "inputs": [
        {
          "internalType": "address",
          "name": "",
          "type": "address"
        }
      ],
      "name": "priceFeeds",
      "outputs": [
        {
          "internalType": "contract AggregatorV3Interface",
          "name": "",
          "type": "address"
        }
      ],
      "stateMutability": "view",
      "type": "function"
    },
    {
      "inputs": [],
      "name": "protocolFees",
      "outputs": [
        {
          "internalType": "uint256",
          "name": "",
          "type": "uint256"
        }
      ],
      "stateMutability": "view",
      "type": "function"
    },
    {
      "inputs": [
        {
          "internalType": "uint256",
          "name": "",
          "type": "uint256"
        }
      ],
      "name": "rebalanceOperationIds",
      "outputs": [
        {
          "internalType": "bytes32",
          "name": "",
          "type": "bytes32"
        }
      ],
      "stateMutability": "view",
      "type": "function"
    },
    {
      "inputs": [
        {
          "internalType": "bytes32",
          "name": "",
          "type": "bytes32"
        }
      ],
      "name": "rebalanceOperations",
      "outputs": [
        {
          "internalType": "bytes32",
          "name": "operationId",
          "type": "bytes32"
        },
        {
          "internalType": "address",
          "name": "token",
          "type": "address"
        },
        {
          "internalType": "uint256",
          "name": "amount",
          "type": "uint256"
        },
        {
          "internalType": "enum CrossChainMinter.RebalanceType",
          "name": "rebalanceType",
          "type": "uint8"
        },
        {
          "internalType": "uint64",
          "name": "targetChain",
          "type": "uint64"
        },
        {
          "internalType": "uint256",
          "name": "timestamp",
          "type": "uint256"
        },
        {
          "internalType": "enum CrossChainMinter.OperationStatus",
          "name": "status",
          "type": "uint8"
        }
      ],
      "stateMutability": "view",
      "type": "function"
    },
    {
      "inputs": [
        {
          "internalType": "bytes32",
          "name": "role",
          "type": "bytes32"
        },
        {
          "internalType": "address",
          "name": "callerConfirmation",
          "type": "address"
        }
      ],
      "name": "renounceRole",
      "outputs": [],
      "stateMutability": "nonpayable",
      "type": "function"
    },
    {
      "inputs": [
        {
          "internalType": "uint256",
          "name": "burnAmount",
          "type": "uint256"
        },
        {
          "internalType": "address",
          "name": "collateralToken",
          "type": "address"
        },
        {
          "internalType": "uint256",
          "name": "collateralAmount",
          "type": "uint256"
        }
      ],
      "name": "requestBurn",
      "outputs": [
        {
          "internalType": "bytes32",
          "name": "requestId",
          "type": "bytes32"
        }
      ],
      "stateMutability": "nonpayable",
      "type": "function"
    },
    {
      "inputs": [
        {
          "internalType": "address",
          "name": "collateralToken",
          "type": "address"
        },
        {
          "internalType": "uint256",
          "name": "collateralAmount",
          "type": "uint256"
        },
        {
          "internalType": "uint256",
          "name": "mintAmount",
          "type": "uint256"
        }
      ],
      "name": "requestMint",
      "outputs": [
        {
          "internalType": "bytes32",
          "name": "requestId",
          "type": "bytes32"
        }
      ],
      "stateMutability": "nonpayable",
      "type": "function"
    },
    {
      "inputs": [
        {
          "internalType": "bytes32",
          "name": "role",
          "type": "bytes32"
        },
        {
          "internalType": "address",
          "name": "account",
          "type": "address"
        }
      ],
      "name": "revokeRole",
      "outputs": [],
      "stateMutability": "nonpayable",
      "type": "function"
    },
    {
      "inputs": [],
      "name": "stabilityPoolBalance",
      "outputs": [
        {
          "internalType": "uint256",
          "name": "",
          "type": "uint256"
        }
      ],
      "stateMutability": "view",
      "type": "function"
    },
    {
      "inputs": [
        {
          "internalType": "address",
          "name": "",
          "type": "address"
        }
      ],
      "name": "supportedCollaterals",
      "outputs": [
        {
          "internalType": "bool",
          "name": "",
          "type": "bool"
        }
      ],
      "stateMutability": "view",
      "type": "function"
    },
    {
      "inputs": [
        {
          "internalType": "bytes4",
          "name": "interfaceId",
          "type": "bytes4"
        }
      ],
      "name": "supportsInterface",
      "outputs": [
        {
          "internalType": "bool",
          "name": "",
          "type": "bool"
        }
      ],
      "stateMutability": "view",
      "type": "function"
    },
    {
      "inputs": [],
      "name": "symbol",
      "outputs": [
        {
          "internalType": "string",
          "name": "",
          "type": "string"
        }
      ],
      "stateMutability": "view",
      "type": "function"
    },
    {
      "inputs": [
        {
          "internalType": "address",
          "name": "",
          "type": "address"
        }
      ],
      "name": "totalCollateral",
      "outputs": [
        {
          "internalType": "uint256",
          "name": "",
          "type": "uint256"
        }
      ],
      "stateMutability": "view",
      "type": "function"
    },
    {
      "inputs": [],
      "name": "totalCollateralValue",
      "outputs": [
        {
          "internalType": "uint256",
          "name": "",
          "type": "uint256"
        }
      ],
      "stateMutability": "view",
      "type": "function"
    },
    {
      "inputs": [],
      "name": "totalSupply",
      "outputs": [
        {
          "internalType": "uint256",
          "name": "",
          "type": "uint256"
        }
      ],
      "stateMutability": "view",
      "type": "function"
    },
    {
      "inputs": [],
      "name": "totalSupplyMinted",
      "outputs": [
        {
          "internalType": "uint256",
          "name": "",
          "type": "uint256"
        }
      ],
      "stateMutability": "view",
      "type": "function"
    },
    {
      "inputs": [
        {
          "internalType": "address",
          "name": "to",
          "type": "address"
        },
        {
          "internalType": "uint256",
          "name": "value",
          "type": "uint256"
        }
      ],
      "name": "transfer",
      "outputs": [
        {
          "internalType": "bool",
          "name": "",
          "type": "bool"
        }
      ],
      "stateMutability": "nonpayable",
      "type": "function"
    },
    {
      "inputs": [
        {
          "internalType": "address",
          "name": "from",
          "type": "address"
        },
        {
          "internalType": "address",
          "name": "to",
          "type": "address"
        },
        {
          "internalType": "uint256",
          "name": "value",
          "type": "uint256"
        }
      ],
      "name": "transferFrom",
      "outputs": [
        {
          "internalType": "bool",
          "name": "",
          "type": "bool"
        }
      ],
      "stateMutability": "nonpayable",
      "type": "function"
    },
    {
      "inputs": [
        {
          "internalType": "address",
          "name": "to",
          "type": "address"
        }
      ],
      "name": "transferOwnership",
      "outputs": [],
      "stateMutability": "nonpayable",
      "type": "function"
    },
    {
      "inputs": [
        {
          "internalType": "address",
          "name": "token",
          "type": "address"
        },
        {
          "internalType": "uint256",
          "name": "newRatio",
          "type": "uint256"
        }
      ],
      "name": "updateCollateralizationRatio",
      "outputs": [],
      "stateMutability": "nonpayable",
      "type": "function"
    },
    {
      "inputs": [
        {
          "internalType": "address",
          "name": "",
          "type": "address"
        }
      ],
      "name": "userPositions",
      "outputs": [
        {
          "internalType": "uint256",
          "name": "totalMinted",
          "type": "uint256"
        },
        {
          "internalType": "uint256",
          "name": "lastUpdateTime",
          "type": "uint256"
        },
        {
          "internalType": "uint256",
          "name": "healthFactor",
          "type": "uint256"
        },
        {
          "internalType": "uint256",
          "name": "liquidationThreshold",
          "type": "uint256"
        },
        {
          "internalType": "bool",
          "name": "isActive",
          "type": "bool"
        }
      ],
      "stateMutability": "view",
      "type": "function"
    },
    {
      "inputs": [
        {
          "internalType": "address",
          "name": "token",
          "type": "address"
        },
        {
          "internalType": "uint256",
          "name": "amount",
          "type": "uint256"
        }
      ],
      "name": "withdrawProtocolFees",
      "outputs": [],
      "stateMutability": "nonpayable",
      "type": "function"
    }
  ],
  "bytecode": "0x61010060405234620004795762004013803803806200001e816200047e565b92833981019060c08183031262000479576200003a81620004a4565b916020926200004b848401620004a4565b6040840151926001600160401b03808516850362000479576200007160608701620004a4565b9560808101518281116200047957836200008d918301620004b9565b9260a08201518381116200047957620000a79201620004b9565b6001600160a01b039490919080861615620004605760805282518181116200035a576003908154906001958683811c9316801562000455575b8c8410146200043f5781908c601f94858111620003e6575b50508c908d8584116001146200037c575060009262000370575b505060001982851b1c191690861b1782555b83519283116200035a5760049384548681811c911680156200034f575b8c8210146200033a57908b82848796959411620002dd575b50508b918411600114620002725760009362000266575b505082851b92600019911b1c19161781555b3315620002225750620001c195503360018060a01b031960055416176005556007551660a05260c0528060e052620001ba336200052b565b50620005ac565b50620001cd336200064f565b50426015556040516139059081620006ee8239608051818181610ead0152611860015260a05181611eb7015260c05181818161057e01528181610bf20152611209015260e0518181816116d6015261197b0152f35b60405162461bcd60e51b8152908101879052601860248201527f43616e6e6f7420736574206f776e657220746f207a65726f00000000000000006044820152606490fd5b01519150388062000170565b60008681528c812088965093929190601f198616908e5b828210620002c55750508511620002aa575b50505050811b01815562000182565b01519060f884600019921b161c19169055388080806200029b565b8385015187558a989096019593840193018e62000289565b9091929394508660005283826000209181880160051c830193881062000330575b9189918897969594930160051c01915b8281106200032057508d915062000159565b600081558796508991016200030e565b92508192620002fe565b602286634e487b7160e01b6000525260246000fd5b90607f169062000141565b634e487b7160e01b600052604160045260246000fd5b01519050388062000112565b9190899450601f1984168760005283600020936000905b828210620003cc5750508411620003b3575b505050811b01825562000124565b015160001983871b60f8161c19169055388080620003a5565b8484015186558c9790950194938401939081019062000393565b909192508560005284826000209181860160051c830193861062000435575b918a91869594930160051c01915b8281106200042557508e9150620000f8565b600081558594508a910162000413565b9250819262000405565b634e487b7160e01b600052602260045260246000fd5b92607f1692620000e0565b6040516335fdcccd60e21b815260006004820152602490fd5b600080fd5b6040519190601f01601f191682016001600160401b038111838210176200035a57604052565b51906001600160a01b03821682036200047957565b919080601f84011215620004795782516001600160401b0381116200035a57602090620004ef601f8201601f191683016200047e565b92818452828287010111620004795760005b8181106200051757508260009394955001015290565b858101830151848201840152820162000501565b6001600160a01b031660008181527fec8156718a8372b1db44bb411437d0870f3e3790d4a08526d024ce1b0b668f6b602052604081205490919060ff16620005a85781805260096020526040822081835260205260408220600160ff19825416179055339160008051602062003ff38339815191528180a4600190565b5090565b6001600160a01b031660008181527fbfc525287a5e6a00b477abd64792013ced8fa1385056e8a5f4b474436c86ef7c60205260408120549091907f4761169e40d0efb53bf684d47e54c803c1511483244b1a2fca6dbbd91b4508d59060ff166200064a5780835260096020526040832082845260205260408320600160ff1982541617905560008051602062003ff3833981519152339380a4600190565b505090565b6001600160a01b031660008181527fd5d09b8f3165a736d25b1a14611612ac91830c1b82012b1c33b2dac7c90a064960205260408120549091907f9f2df0fed2c77648de5860a4cc508cd0818c85b8b8a1ab4ceeef8d981c8956a69060ff166200064a5780835260096020526040832082845260205260408320600160ff1982541617905560008051602062003ff3833981519152339380a460019056fe608080604052600436101561001357600080fd5b60003560e01c90816301ffc9a714612c935750806305db8a6914612bcb5780630675e57514612aa857806306fdde03146129e5578063095ea7b31461292d5780630a192092146128dc5780630d39e46d1461283857806316d8887a146127fd578063172c48c7146127bb57806318160ddd1461279d5780631a7a73c2146127155780631ad8b03b146126f7578063235d8dd3146125ab57806323b872dd14612589578063248a9ca31461255a5780632a6739a21461253c5780632f2ff15d146124fd5780632fdc998814612467578063313ce5671461244b57806331970582146123fa57806336568abe146123b357806338009086146120c457806342966c68146120a75780634585e33b1461206157806349af0bd214611fc75780634a4e3bd514611f5d578063505becbb14611f4057806351858e2714611ee657806357970e9314611ea15780635b7c2dad14611e3d5780635c975abb14611e1a578063613cf42014611dac57806364ed3db314611cf65780636e04ff0d14611c5157806370a0823114611c17578063771aceef14611b9357806379ba509714611aea57806379cc679014611aba5780637e059b2214611a8057806382a39cf714611a6257806385572ffb146118235780638cf18e64146117995780638da5cb5b1461177057806391d1485414611723578063933e95b214611705578063934666e5146116c057806395d89b41146115ae578063986d7a691461101e57806399dac98114610fe35780639b8621d514610fc65780639dcb511a14610f8b578063a217fddf14610f6f578063a9059cbb14610f3e578063aaea700914610eff578063aaf5eb6814610edc578063b0f479a114610e97578063b20c9c0814610cb3578063b3c072b014610c32578063b5627e4214610c16578063b99aa29714610bd2578063bafca75e14610ba3578063c15fa25014610b52578063c85b967d14610b36578063d539139314610afb578063d547741f14610aba578063d9ca21d514610a9c578063dd62ed3e14610a4b578063eaca974b14610a2d578063f2ba5677146109dc578063f2fde38b146108e7578063f67e6070146104395763f6a44b381461033757600080fd5b346104345760203660031901126104345760e0610352612d78565b600060c060405161036281612e9b565b8281528260208201528260408201528260608201528260808201528260a0820152015260018060a01b03809116600052600d6020526040600020604051906103a982612e9b565b60ff8154161515928383526001820154602084019081526002830154604085019081526003840154906060860191825283600486015416926080870193845260c060ff600660058901549860a08b01998a5201541697019615158752604051978852516020880152516040870152516060860152511660808401525160a083015251151560c0820152f35b600080fd5b3461043457606036600319011261043457600435610455612d8e565b6044359061046161341b565b6104696133fd565b60018060a01b039182821692836000526020946011865260ff60406000205416156108ce5780156108935761049f8315156132fe565b33600052600c8652604060002093600194858101549083821061084e578760005288528460406000205410610809576104da8386843361369a565b9083606e831091826107ff575b50506107e0575086600761061e92604051838101913360601b83528660348301526001600160601b03199060601b1660548201528760688201524260888201526088815261053481612ed1565b51902080988860405194859261054984612e63565b8484528184019033825260408501918a83526060860191825260808601928d84528c60a0880196600b6001600160401b0397887f0000000000000000000000000000000000000000000000000000000000000000168a5260e060c08c019b428d52019b60008d526000525260406000209b518c558b01925116916001600160601b0360a01b92838254161790555160028a01558b60038a0192511690825416179055516004870155600586019151166001600160401b0319825416179055516006840155519161061883612d18565b0161337d565b60195492600160401b8410156107ca57848401806019558410156107b4578686937fa0ecf338c206496cc0d82caed6b7fe238a43323a4263c17cd24fd0017a40ab0393604093866106f69860196000527f944998273e477b495144fb8794c914197f3ccb46be2900f4698fd0ef743c96950155845191825283820152857fc99ddd42e5a5bdc057f376347a29501ebbfc41b17829458caf2a29ad936c551b853393a384600052600b82528260002060078101600260ff198a818454161783558a840193601086865416978483019c8d998a549061325f565b87875416600052600c81528d8a6000209061073d600486019b60038d549701968c88541660005284865261072f8f60002091825461343e565b90555491830191825461343e565b9055428682015560036107528a8a54166135d1565b91015561076888845416898954168b549161344b565b878954935416600052526107818860002091825461343e565b90556107908a5460125461343e565b601255825416179055541694549054825191825288820152a3600755604051908152f35b634e487b7160e01b600052603260045260246000fd5b634e487b7160e01b600052604160045260246000fd5b60449060405190635a7940e960e11b82526004820152606e6024820152fd5b119050838a6104e7565b60405162461bcd60e51b815260048101899052601760248201527f496e73756666696369656e7420636f6c6c61746572616c0000000000000000006044820152606490fd5b60405162461bcd60e51b8152600481018a9052601a60248201527f496e73756666696369656e74206d696e74656420746f6b656e730000000000006044820152606490fd5b60405162461bcd60e51b8152600481018790526013602482015272125b9d985b1a5908189d5c9b88185b5bdd5b9d606a1b6044820152606490fd5b604051632108722b60e01b815260048101869052602490fd5b3461043457602036600319011261043457610900612d78565b6005546001600160a01b03908116913383900361099e57169033821461095957600680546001600160a01b031916831790557fed8889f560326eb138920d842192f0eb3dd22b4f139c87a2c57538e05bae1278600080a3005b60405162461bcd60e51b815260206004820152601760248201527f43616e6e6f74207472616e7366657220746f2073656c660000000000000000006044820152606490fd5b60405162461bcd60e51b815260206004820152601660248201527527b7363c9031b0b63630b1363290313c9037bbb732b960511b6044820152606490fd5b34610434576040366003190112610434576109f5612d78565b6109fd612d8e565b9060018060a01b03809116600052600c602052604060002091166000526020526020604060002054604051908152f35b34610434576000366003190112610434576020601754604051908152f35b3461043457604036600319011261043457610a64612d78565b610a6c612d8e565b9060018060a01b038091166000526001602052604060002091166000526020526020604060002054604051908152f35b34610434576000366003190112610434576020601554604051908152f35b3461043457604036600319011261043457610af9600435610ad9612d8e565b90806000526009602052610af4600160406000200154612f9d565b613043565b005b346104345760003660031901126104345760206040517f9f2df0fed2c77648de5860a4cc508cd0818c85b8b8a1ab4ceeef8d981c8956a68152f35b3461043457600036600319011261043457602060405160648152f35b3461043457602036600319011261043457600435601a5481101561043457602090601a6000527f057c384a7d1c54f3a1b2e5e67b2617b8224fdfd1ea7234eea573a6ff665ff63e0154604051908152f35b34610434576020366003190112610434576020606e610bc8610bc3612d78565b6135d1565b1015604051908152f35b346104345760003660031901126104345760206040516001600160401b037f0000000000000000000000000000000000000000000000000000000000000000168152f35b34610434576000366003190112610434576020604051606e8152f35b3461043457604036600319011261043457610c4b612d78565b60243590610c57612f63565b6001600160a01b031660008181526011602052604090205460ff1615610c9b57610c85617530831115613892565b600052600d602052600160406000200155600080f35b60249060405190632108722b60e01b82526004820152fd5b346104345760c036600319011261043457610ccc612d78565b6001600160a01b036084358181169260443591602435919085900361043457610cf3612f63565b610d01617530831115613892565b81831015610e525760405194610d1686612e9b565b60018652610dc860208701968488526006604082019487865260608301956064358752608084019686885260a085019160a43583528b60c087019460018652169c8d600052600d602052610d7e604060002097511515889060ff801983541691151516179055565b5160018701555160028601555160038501558960048501975116966001600160601b0360a01b978882541617905551600584015551151591019060ff801983541691151516179055565b60116020526040600020600160ff19825416179055600f602052604060002091825416179055601b5491600160401b8310156107ca577f11f8990ac38271f23dea447d5728e9914fca7cea2edda43af6c43c415f8bc30b93610e3284600160409601601b55612da4565b819291549060031b9188831b921b191617905582519182526020820152a2005b60405162461bcd60e51b815260206004820152601960248201527f496e76616c6964206c69717569646174696f6e20726174696f000000000000006044820152606490fd5b34610434576000366003190112610434576040517f00000000000000000000000000000000000000000000000000000000000000006001600160a01b03168152602090f35b34610434576000366003190112610434576020604051670de0b6b3a76400008152f35b34610434576020366003190112610434576001600160a01b03610f20612d78565b166000526011602052602060ff604060002054166040519015158152f35b3461043457604036600319011261043457610f64610f5a612d78565b60243590336130ba565b602060405160018152f35b3461043457600036600319011261043457602060405160008152f35b346104345760203660031901126104345760206001600160a01b0380610faf612d78565b16600052600f825260406000205416604051908152f35b346104345760003660031901126104345760206040516101f48152f35b346104345760003660031901126104345760206040517f4761169e40d0efb53bf684d47e54c803c1511483244b1a2fca6dbbd91b4508d58152f35b3461043457606036600319011261043457611037612d78565b61103f61341b565b6110476133fd565b6001600160a01b03811660009081526011602052604090205460ff161561158c5761107560243515156132fe565b604435156115515760018060a01b038116600052600d602052604060002060405161109f81612e9b565b815460ff90811615158252600183015460208301908152600284015460408401526003840154606084015260048401546001600160a01b03166080840152600584015460a084015260069093015416151560c09091015261271061111261110860243585613759565b925160443561334a565b0480821061153357826040516323b872dd60e01b602082015233602482015230604482015260243560648201526064815260a08101908082106001600160401b038311176107ca57604091909152611173906001600160a01b038316613395565b60405160208101903360601b82526001600160601b03198360601b16603482015260243560488201526044356068820152426088820152608881526111b781612ed1565b519020906111cb60443560243583336134a7565b604051906111d882612e7f565b83825233602083015260018060a01b0383166040830152602435606083015260443560808301526001600160401b037f00000000000000000000000000000000000000000000000000000000000000001660a08301524260c0830152600060e083015261010082015282600052600a6020526008610100604060002092805184556001840160018060a01b03602083015116906001600160601b0360a01b9182825416179055600285019060018060a01b03604084015116908254161790556060810151600385015560808101516004850155600584016001600160401b0360a0830151166001600160401b031982541617905560c081015160068501556112f060e08201516112e781612d18565b6007860161337d565b0151910155601854600160401b8110156107ca5760018101806018558110156107b457829060186000527fb13d2d76d1f4b7be834882e410b3e3a8afaf69f83600ae24db354391d2378d2e0155604051906024358252604435602083015260018060a01b031690827f8f702d274f6a9403ef54e877eaaab921a407212ac4540d7189755e1c768020b060403393a480600052600a60205260406000209060088201606e815410156113ac575b6020826001600755604051908152f35b600783019260ff1990600182865416178555600181019260018060a01b03845416906004830194855497831561151a57600288967f6e0437d0f0167d62bf859e3922bb99865c1af316217f4cc9957f3847f5b56dbf9660409660007fddf252ad1be2c89b69c2b068fc378daa952ba7f163c4a11628f55a4df523b3ef60209e8f9061143881895461317f565b88558484528382528b84208181540190558b51908152a360018060a01b03855416600052600c8c52866000206005600383019185835494019360018060a01b038554166000528f8290526114918b60002091825461317f565b90558c546114a46001830191825461317f565b9055428187015588546003820155018054841660011790555490546001600160a01b0316600090815260108d52879020805490916114e19161317f565b90556114f0895460125461317f565b60125582541617905554945490548251918252878201526001600160a01b0390941693a38261139c565b60405163ec442f0560e01b815260006004820152602490fd5b6044925060405191632c1f8ef160e21b835260048301526024820152fd5b60405162461bcd60e51b8152602060048201526013602482015272125b9d985b1a59081b5a5b9d08185b5bdd5b9d606a1b6044820152606490fd5b604051632108722b60e01b81526001600160a01b039091166004820152602490fd5b3461043457600036600319011261043457604051600060045490600182811c918184169182156116b6575b60209485851084146116a0578587948686529182600014611680575050600114611623575b5061160b92500383612eec565b61161f604051928284938452830190612d38565b0390f35b84915060046000527f8a35acfbc15ff81a39ae7d344fd709f28e8600b4aa8c65c6b64bfe7fe36bd19b906000915b85831061166857505061160b9350820101856115fe565b80548389018501528794508693909201918101611651565b60ff19168582015261160b95151560051b85010192508791506115fe9050565b634e487b7160e01b600052602260045260246000fd5b92607f16926115d9565b34610434576000366003190112610434576040517f00000000000000000000000000000000000000000000000000000000000000006001600160a01b03168152602090f35b34610434576000366003190112610434576020601254604051908152f35b346104345760403660031901126104345761173c612d8e565b600435600052600960205260406000209060018060a01b0316600052602052602060ff604060002054166040519015158152f35b34610434576000366003190112610434576005546040516001600160a01b039091168152602090f35b346104345760203660031901126104345760e06001600160a01b03806117bd612d78565b16600052600d60205260406000209060ff825416916001810154916002820154906003830154906004840154169160ff6006600586015495015416946040519615158752602087015260408601526060850152608084015260a0830152151560c0820152f35b346104345760031960203682018113610434576004356001600160401b03928382116104345760a0908236030112610434576001600160a01b03907f000000000000000000000000000000000000000000000000000000000000000082163303611a4a576040519360a08501858110828211176107ca576040528160040135855260249485830135828116810361043457858201526044830135828111610434576118d49060043691860101612f0d565b92604082019384526064810135838111610434576118f89060043691840101612f0d565b6060830152608481013590838211610434570136602382011215610434576004810135838111611a355760405193611935888360051b0186612eec565b818552888886019260061b84010192368411610434578901915b8383106119da5750505050608001525182818051810103126104345782015190808216809203610434577f000000000000000000000000000000000000000000000000000000000000000016036119a257005b60136064926040519262461bcd60e51b84526004840152820152722ab730baba3437b934bd32b21039b2b73232b960691b6044820152fd5b60408336031261043457604051906040820182811084821117611a2057604052833590898216820361043457828b9260409452828601358382015281520192019161194f565b8b634e487b7160e01b60005260416004526000fd5b87634e487b7160e01b60005260416004526000fd5b6040516335fdcccd60e21b8152336004820152602490fd5b34610434576000366003190112610434576020601654604051908152f35b34610434576020366003190112610434576001600160a01b03611aa1612d78565b1660005260106020526020604060002054604051908152f35b3461043457604036600319011261043457610af9611ad6612d78565b60243590611ae582338361318c565b61325f565b34610434576000366003190112610434576006546001600160a01b038082163303611b5557600554916001600160601b0360a01b903382851617600555166006553391167f8be0079c531659141344cd1fd0a4f28419497f9722a3daafe3b4186f6b6457e0600080a3005b60405162461bcd60e51b815260206004820152601660248201527526bab9ba10313290383937b837b9b2b21037bbb732b960511b6044820152606490fd5b34610434576000366003190112610434576012548015611c0d576013549061271091828102928184041490151715611bf757611bd18160a09361335d565b601354601454601654916040519485526020850152604084015260608301526080820152f35b634e487b7160e01b600052601160045260246000fd5b60a0906000611bd1565b34610434576020366003190112610434576001600160a01b03611c38612d78565b1660005260006020526020604060002054604051908152f35b3461043457611c5f36612e1a565b50506060601554610e10611c8262015180611c7a844261343e565b11924261343e565b119080918115611ced575b8215611ce5575b82611cba575b505061161f60405192839215158352604060208401526040830190612d38565b6040939192935192602084015260016040840152818301528152611cdd81612eb6565b908280611c9a565b915081611c94565b60019250611c8d565b3461043457611d11611d0736612ddb565b9080939250613759565b9060018060a01b03809116600052600d602052604060002060c060ff600660405193611d3c85612e9b565b82815416151585526001810154956020860196875260028201546040870152600382015460608701526004820154166080860152600581015460a0860152015416151591015261271091828102928184041490151715611bf757602091611da491519061335d565b604051908152f35b34610434576020366003190112610434576001600160a01b03611dcd612d78565b16600052600c60205260a06040600020600181015490600281015490600381015460ff60056004840154930154169260405194855260208501526040840152606083015215156080820152f35b3461043457600036600319011261043457602060ff600854166040519015158152f35b34610434576020366003190112610434576001600160a01b03611e5e612d78565b16600052600c6020526080604060002060018101549060028101549060ff6005600383015492015416916040519384526020840152604083015215156060820152f35b34610434576000366003190112610434576040517f00000000000000000000000000000000000000000000000000000000000000006001600160a01b03168152602090f35b3461043457600036600319011261043457611eff612f63565b611f076133fd565b600160ff1960085416176008557f62e78cea01bee320cd4e420270b5ea74000d11b0c9f74754ebdbfc544b05a2586020604051338152a1005b346104345760003660031901126104345760206040516175308152f35b3461043457600036600319011261043457611f76612f63565b60085460ff811615611fb55760ff19166008557f5db9ee0a495bf2e6ff9c91a7834c1ba4fdd244a5e8aa4e537bd38aeae4b073aa6020604051338152a1005b604051638dfc202b60e01b8152600490fd5b3461043457602036600319011261043457600435600052600b602052610100604060002080549060018060a01b039081600182015416916002820154906003830154166004830154906001600160401b036005850154169260ff600760068701549601541695604051978852602088015260408701526060860152608085015260a084015260c083015261205a81612d18565b60e0820152f35b3461043457606061207136612e1a565b90809291810103126104345760408161208c6120a09361348b565b506120996020820161348b565b500161348b565b5042601555005b3461043457602036600319011261043457610af96004353361325f565b34610434576120d236612ddb565b6120da61341b565b6120e26133fd565b3360009081527f79c4691b36fc32bb2e2301841392672a65e74001174189935438d9f63c5d383560209081526040909120549093907f5e17fc5225d4a099df75359ce1f405503ca79498a8dc46a7d583235a0ee45c169060ff161561239557506001600160a01b0383811660008181526011875260409020549095919060ff161561237c5782169283600052600c825260406000209060ff600583015416156123415761218e846135d1565b606e8110156123295750600087815282845260409020546121b9918181111561232057508096613759565b926127109384810290808204861490151715611bf7576121ea9088600052600d85526002604060002001549061335d565b936101f4808602908682041486151715611bf757049361220a858261317f565b94336000526000855285604060002054106122db579161229a6122a29261227560039561226d8c8e61223c8d3361325f565b806000528a8c52604060002061225383825461343e565b905560018b0161226487825461343e565b9055339061344b565b60165461317f565b6016558a6000526010875260406000206122908b825461343e565b905560125461343e565b6012556135d1565b9101556040519384528301527faaa3e6a935674cc172e60bf40d5e74691d4b2192405f3843f12ac33dacadb73d60403393a46001600755005b60405162461bcd60e51b815260048101869052601f60248201527f496e73756666696369656e74206c697175696461746f722062616c616e6365006044820152606490fd5b90508096613759565b6024906040519063605c044360e11b82526004820152fd5b60405162461bcd60e51b8152600481018490526013602482015272506f736974696f6e206e6f742061637469766560681b6044820152606490fd5b604051632108722b60e01b815260048101879052602490fd5b6044906040519063e2517d3f60e01b82523360048301526024820152fd5b34610434576040366003190112610434576123cc612d8e565b336001600160a01b038216036123e857610af990600435613043565b60405163334bd91960e11b8152600490fd5b34610434576020366003190112610434576004356018548110156104345760209060186000527fb13d2d76d1f4b7be834882e410b3e3a8afaf69f83600ae24db354391d2378d2e0154604051908152f35b3461043457600036600319011261043457602060405160128152f35b3461043457602036600319011261043457600435600052600e60205260e0604060002080549060018060a01b03600182015416906001600160401b03600282015460038301549060ff82169060ff600560048701549601541695604051978852602088015260408701526124da81612e10565b606086015260081c16608084015260a08301526124f681612e10565b60c0820152f35b3461043457604036600319011261043457610af960043561251c612d8e565b90806000526009602052612537600160406000200154612f9d565b612fc3565b34610434576000366003190112610434576020601354604051908152f35b346104345760203660031901126104345760043560005260096020526020600160406000200154604051908152f35b3461043457610f6461259a36612ddb565b916125a683338361318c565b6130ba565b34610434576020366003190112610434576101206040516125cb81612e7f565b6000815260006020820152600060408201526000606082015260006080820152600060a0820152600060c0820152600060e0820152600061010080920152600435600052600a6020526040600020906040519161262783612e7f565b805483528260018060a01b03918260018201541692602083019384528060028301541660408401908152600383015460608501908152600484015490608086019182526001600160401b0393846005870154169360a0880194855281600860068901549860c08b01998a5260e060ff6007830154169b019a6126a881612d18565b8b520154998b8d019a8b526040519c518d52511660208c0152511660408a0152516060890152516080880152511660a08601525160c0850152516126eb81612d18565b60e08401525190820152f35b34610434576000366003190112610434576020601454604051908152f35b346104345760403660031901126104345761272e612d78565b602435612739612f63565b601454918282116127645761275182610af99461343e565b60145533906001600160a01b031661344b565b60405162461bcd60e51b8152602060048201526011602482015270496e73756666696369656e74206665657360781b6044820152606490fd5b34610434576000366003190112610434576020600254604051908152f35b3461043457602036600319011261043457600435601b54811015610434576127e4602091612da4565b905460405160039290921b1c6001600160a01b03168152f35b346104345760003660031901126104345760206040517f5e17fc5225d4a099df75359ce1f405503ca79498a8dc46a7d583235a0ee45c168152f35b3461043457602036600319011261043457600435600052600a602052610120604060002080549060018060a01b03908160018201541691600282015416600382015460048301546001600160401b0360058501541691600685015493600860ff60078801541696015496604051988952602089015260408801526060870152608086015260a085015260c08401526128cf81612d18565b60e0830152610100820152f35b34610434576020366003190112610434576004356019548110156104345760209060196000527f944998273e477b495144fb8794c914197f3ccb46be2900f4698fd0ef743c96950154604051908152f35b3461043457604036600319011261043457612946612d78565b6024359033156129cc576001600160a01b03169081156129b357336000526001602052604060002082600052602052806040600020556040519081527f8c5be1e5ebec7d5bd14f71427d1e84f3dd0314c0f7b2291e5b200ac8c7c3b92560203392a3602060405160018152f35b604051634a1406b160e11b815260006004820152602490fd5b60405163e602df0560e01b815260006004820152602490fd5b3461043457600036600319011261043457604051600060035490600182811c91818416918215612a9e575b60209485851084146116a0578587948686529182600014611680575050600114612a41575061160b92500383612eec565b84915060036000527fc2575a0e9e593c00f959f8c92f12db2869c3395a3b0502d05e2516446f71f85b906000915b858310612a8657505061160b9350820101856115fe565b80548389018501528794508693909201918101612a6f565b92607f1692612a10565b3461043457602036600319011261043457600060e0604051612ac981612e63565b8281528260208201528260408201528260608201528260808201528260a08201528260c08201520152600435600052600b602052610100604060002060405190612b1282612e63565b8054825260018060a01b0390816001820154169160208401928352600282015460408501908152816003840154169160608601928352600484015490608087019182526001600160401b0393846005870154169360a089019485528260ff600760068a01549960c08d019a8b520154169860e08b0199612b9181612d18565b8a526040519a518b52511660208a015251604089015251166060870152516080860152511660a08401525160c08301525161205a81612d18565b346104345760003660031901126104345760405180601b5480835260208093018091601b6000527f3ad8aa4f87544323a9d1e5dd902f40c356527a7955687113db5f9a85ad579dc19060005b86828210612c76578686612c2d82880383612eec565b604051928392818401908285525180915260408401929160005b828110612c5657505050500390f35b83516001600160a01b031685528695509381019392810192600101612c47565b83546001600160a01b031685529093019260019283019201612c17565b34610434576020366003190112610434576004359063ffffffff60e01b8216809203610434576020916385572ffb60e01b8114908115612d07575b8115612cdc575b5015158152f35b637965db0b60e01b811491508115612cf6575b5083612cd5565b6301ffc9a760e01b14905083612cef565b6301ffc9a760e01b81149150612cce565b60051115612d2257565b634e487b7160e01b600052602160045260246000fd5b919082519283825260005b848110612d64575050826000602080949584010152601f8019910116010190565b602081830181015184830182015201612d43565b600435906001600160a01b038216820361043457565b602435906001600160a01b038216820361043457565b601b548110156107b457601b6000527f3ad8aa4f87544323a9d1e5dd902f40c356527a7955687113db5f9a85ad579dc10190600090565b6060906003190112610434576001600160a01b0390600435828116810361043457916024359081168103610434579060443590565b60041115612d2257565b906020600319830112610434576004356001600160401b039283821161043457806023830112156104345781600401359384116104345760248483010111610434576024019190565b61010081019081106001600160401b038211176107ca57604052565b61012081019081106001600160401b038211176107ca57604052565b60e081019081106001600160401b038211176107ca57604052565b608081019081106001600160401b038211176107ca57604052565b60c081019081106001600160401b038211176107ca57604052565b90601f801991011681019081106001600160401b038211176107ca57604052565b81601f82011215610434578035906001600160401b0382116107ca5760405192612f41601f8401601f191660200185612eec565b8284526020838301011161043457816000926020809301838601378301015290565b3360009081527fec8156718a8372b1db44bb411437d0870f3e3790d4a08526d024ce1b0b668f6b602052604081205460ff16156123955750565b80600052600960205260406000203360005260205260ff60406000205416156123955750565b906000918083526009602052604083209160018060a01b03169182845260205260ff6040842054161560001461303e5780835260096020526040832082845260205260408320600160ff198254161790557f2f8788117e7eff1d82e926ec794901d17c78024a50270940304540a733656f0d339380a4600190565b505090565b906000918083526009602052604083209160018060a01b03169182845260205260ff60408420541660001461303e578083526009602052604083208284526020526040832060ff1981541690557ff6391f5c32d9c69d2a47ea670b442974b53935d1edc7fd64eb21e047a839171b339380a4600190565b916001600160a01b03808416928315613166571692831561151a5760009083825281602052604082205490838210613134575091604082827fddf252ad1be2c89b69c2b068fc378daa952ba7f163c4a11628f55a4df523b3ef958760209652828652038282205586815220818154019055604051908152a3565b60405163391434e360e21b81526001600160a01b03919091166004820152602481019190915260448101839052606490fd5b604051634b637e8f60e11b815260006004820152602490fd5b91908201809211611bf757565b9160018060a01b0380931691600093838552600160205260409384862091831691828752602052848620549260001984106131cb575b50505050505050565b84841061322f575080156132175781156131ff578552600160205283852090855260205203912055388080808080806131c2565b8451634a1406b160e11b815260048101879052602490fd5b845163e602df0560e01b815260048101879052602490fd5b8551637dc7a0d960e11b81526001600160a01b039190911660048201526024810184905260448101859052606490fd5b906001600160a01b03821690811561316657600092828452836020526040842054908282106132cc5750817fddf252ad1be2c89b69c2b068fc378daa952ba7f163c4a11628f55a4df523b3ef926020928587528684520360408620558060025403600255604051908152a3565b60405163391434e360e21b81526001600160a01b03919091166004820152602481019190915260448101829052606490fd5b1561330557565b60405162461bcd60e51b815260206004820152601960248201527f496e76616c696420636f6c6c61746572616c20616d6f756e74000000000000006044820152606490fd5b81810292918115918404141715611bf757565b8115613367570490565b634e487b7160e01b600052601260045260246000fd5b9061338781612d18565b60ff80198354169116179055565b906000602091828151910182855af1156133f1576000513d6133e857506001600160a01b0381163b155b6133c65750565b604051635274afe760e01b81526001600160a01b039091166004820152602490fd5b600114156133bf565b6040513d6000823e3d90fd5b60ff6008541661340957565b60405163d93c066560e01b8152600490fd5b60026007541461342c576002600755565b604051633ee5aeb560e01b8152600490fd5b91908203918211611bf757565b60405163a9059cbb60e01b60208201526001600160a01b0390921660248301526044808301939093529181526134899161348482612eb6565b613395565b565b3590811515820361043457565b6000198114611bf75760010190565b9392909160018060a01b03806000961686526020600c81526040946134cf8689209482613759565b958893601b54945b85811061357a575050505050509060016134f292015461317f565b90811561357157606e810290808204606e148115171561355d576805f68e8131ecf800000290808204670de0b6b3a7640000149015171561354957606482029182046064036135495761354692935061335d565b90565b634e487b7160e01b84526011600452602484fd5b634e487b7160e01b85526011600452602485fd5b50600019925050565b8161358482612da4565b90549060031b1c168b83861682036135a7575b50506135a290613498565b6134d7565b996135c382868d6135c9956135a2979f528c8b52205490613759565b9061317f565b98908b613597565b9060018060a01b0380600093168352602090600c825260408085209185938692601b54925b83851061365a5750505050506001015490811561357157606e810290808204606e148115171561355d576805f68e8131ecf800000290808204670de0b6b3a7640000149015171561354957606482029182046064036135495761354692935061335d565b909192939561368b613691916135c3846136738b612da4565b90549060031b1c16808d52898852868d205490613759565b96613498565b939291906135f6565b93929060018060a01b0380600096168652602091600c83526040908188209388968994601b54945b8b8688106136e05750505050505050509060016134f292015461343e565b879a6135c36137209284866136fd6137269798999a9b9c9d612da4565b90549060031b1c16918281528d8b5220549088888c168214613731575b50613759565b99613498565b9594939291906136c2565b61373b919261343e565b908861371a565b519069ffffffffffffffffffff8216820361043457565b90801561388b576001600160a01b039182166000908152600f6020526040812054909216801561384f5760a060049160405192838092633fabe5a360e21b82525afa9081156138445783916137ee575b506137b39161334a565b906402540be400918281029281840414901517156137da5750670de0b6b3a7640000900490565b634e487b7160e01b81526011600452602490fd5b905060a0813d821161383c575b8161380860a09383612eec565b8101031261383857908161381e6137b393613742565b50613830608060208301519201613742565b5090916137a9565b8280fd5b3d91506137fb565b6040513d85823e3d90fd5b60405162461bcd60e51b8152602060048201526014602482015273141c9a58d94819995959081b9bdd08199bdd5b9960621b6044820152606490fd5b5050600090565b1561389957565b60405162461bcd60e51b815260206004820152600e60248201526d0a4c2e8d2de40e8dede40d0d2ced60931b6044820152606490fdfea264697066735822122070fc278872187f74c2e285fb744e9797310ef32161638cff745ef0647ded462764736f6c634300081400332f8788117e7eff1d82e926ec794901d17c78024a50270940304540a733656f0d",
  "linkReferences": {},
  "deployedLinkReferences": {}
}