{
  "_format": "hh-sol-artifact-1",
  "contractName": "CrossChainDepositor",
  "sourceName": "contracts/CrossChainDepositor.sol",
  "abi": [
    {
      "inputs": [
        {
          "internalType": "address",
          "name": "_router",
          "type": "address"
        },
        {
          "internalType": "address",
          "name": "_linkToken",
          "type": "address"
        },
        {
          "internalType": "uint64",
          "name": "_hubChainSelector",
          "type": "uint64"
        },
        {
          "internalType": "address",
          "name": "_hubContract",
          "type": "address"
        }
      ],
      "stateMutability": "nonpayable",
      "type": "constructor"
    },
    {
      "inputs": [],
      "name": "AccessControlBadConfirmation",
      "type": "error"
    },
    {
      "inputs": [
        {
          "internalType": "address",
          "name": "account",
          "type": "address"
        },
        {
          "internalType": "bytes32",
          "name": "neededRole",
          "type": "bytes32"
        }
      ],
      "name": "AccessControlUnauthorizedAccount",
      "type": "error"
    },
    {
      "inputs": [
        {
          "internalType": "bytes32",
          "name": "depositId",
          "type": "bytes32"
        }
      ],
      "name": "DepositNotFound",
      "type": "error"
    },
    {
      "inputs": [],
      "name": "EnforcedPause",
      "type": "error"
    },
    {
      "inputs": [
        {
          "internalType": "uint256",
          "name": "amount",
          "type": "uint256"
        },
        {
          "internalType": "uint256",
          "name": "maximum",
          "type": "uint256"
        }
      ],
      "name": "ExcessiveAmount",
      "type": "error"
    },
    {
      "inputs": [],
      "name": "ExpectedPause",
      "type": "error"
    },
    {
      "inputs": [
        {
          "internalType": "uint256",
          "name": "amount",
          "type": "uint256"
        },
        {
          "internalType": "uint256",
          "name": "minimum",
          "type": "uint256"
        }
      ],
      "name": "InsufficientAmount",
      "type": "error"
    },
    {
      "inputs": [
        {
          "internalType": "uint256",
          "name": "requested",
          "type": "uint256"
        },
        {
          "internalType": "uint256",
          "name": "available",
          "type": "uint256"
        }
      ],
      "name": "InsufficientBalance",
      "type": "error"
    },
    {
      "inputs": [
        {
          "internalType": "uint64",
          "name": "chainSelector",
          "type": "uint64"
        }
      ],
      "name": "InvalidDestinationChain",
      "type": "error"
    },
    {
      "inputs": [
        {
          "internalType": "uint256",
          "name": "riskTolerance",
          "type": "uint256"
        }
      ],
      "name": "InvalidRiskTolerance",
      "type": "error"
    },
    {
      "inputs": [
        {
          "internalType": "address",
          "name": "router",
          "type": "address"
        }
      ],
      "name": "InvalidRouter",
      "type": "error"
    },
    {
      "inputs": [],
      "name": "ReentrancyGuardReentrantCall",
      "type": "error"
    },
    {
      "inputs": [
        {
          "internalType": "address",
          "name": "token",
          "type": "address"
        }
      ],
      "name": "SafeERC20FailedOperation",
      "type": "error"
    },
    {
      "inputs": [
        {
          "internalType": "address",
          "name": "token",
          "type": "address"
        }
      ],
      "name": "TokenNotSupported",
      "type": "error"
    },
    {
      "inputs": [
        {
          "internalType": "address",
          "name": "caller",
          "type": "address"
        }
      ],
      "name": "UnauthorizedAccess",
      "type": "error"
    },
    {
      "inputs": [
        {
          "internalType": "uint256",
          "name": "strategyId",
          "type": "uint256"
        }
      ],
      "name": "YieldStrategyNotFound",
      "type": "error"
    },
    {
      "anonymous": false,
      "inputs": [
        {
          "indexed": true,
          "internalType": "address",
          "name": "user",
          "type": "address"
        },
        {
          "indexed": true,
          "internalType": "address",
          "name": "token",
          "type": "address"
        },
        {
          "indexed": false,
          "internalType": "uint256",
          "name": "compoundedAmount",
          "type": "uint256"
        }
      ],
      "name": "AutoYieldCompounded",
      "type": "event"
    },
    {
      "anonymous": false,
      "inputs": [
        {
          "indexed": true,
          "internalType": "bytes32",
          "name": "depositId",
          "type": "bytes32"
        },
        {
          "indexed": true,
          "internalType": "address",
          "name": "user",
          "type": "address"
        },
        {
          "indexed": false,
          "internalType": "uint256",
          "name": "finalAmount",
          "type": "uint256"
        }
      ],
      "name": "DepositConfirmed",
      "type": "event"
    },
    {
      "anonymous": false,
      "inputs": [
        {
          "indexed": true,
          "internalType": "bytes32",
          "name": "depositId",
          "type": "bytes32"
        },
        {
          "indexed": true,
          "internalType": "address",
          "name": "user",
          "type": "address"
        },
        {
          "indexed": true,
          "internalType": "address",
          "name": "token",
          "type": "address"
        },
        {
          "indexed": false,
          "internalType": "uint256",
          "name": "amount",
          "type": "uint256"
        },
        {
          "indexed": false,
          "internalType": "uint64",
          "name": "destinationChain",
          "type": "uint64"
        }
      ],
      "name": "DepositInitiated",
      "type": "event"
    },
    {
      "anonymous": false,
      "inputs": [
        {
          "indexed": true,
          "internalType": "bytes32",
          "name": "depositId",
          "type": "bytes32"
        },
        {
          "indexed": true,
          "internalType": "bytes32",
          "name": "ccipMessageId",
          "type": "bytes32"
        },
        {
          "indexed": true,
          "internalType": "address",
          "name": "user",
          "type": "address"
        },
        {
          "indexed": false,
          "internalType": "uint256",
          "name": "amount",
          "type": "uint256"
        }
      ],
      "name": "DepositSentToHub",
      "type": "event"
    },
    {
      "anonymous": false,
      "inputs": [
        {
          "indexed": true,
          "internalType": "address",
          "name": "from",
          "type": "address"
        },
        {
          "indexed": true,
          "internalType": "address",
          "name": "to",
          "type": "address"
        }
      ],
      "name": "OwnershipTransferRequested",
      "type": "event"
    },
    {
      "anonymous": false,
      "inputs": [
        {
          "indexed": true,
          "internalType": "address",
          "name": "from",
          "type": "address"
        },
        {
          "indexed": true,
          "internalType": "address",
          "name": "to",
          "type": "address"
        }
      ],
      "name": "OwnershipTransferred",
      "type": "event"
    },
    {
      "anonymous": false,
      "inputs": [
        {
          "indexed": false,
          "internalType": "address",
          "name": "account",
          "type": "address"
        }
      ],
      "name": "Paused",
      "type": "event"
    },
    {
      "anonymous": false,
      "inputs": [
        {
          "indexed": true,
          "internalType": "bytes32",
          "name": "role",
          "type": "bytes32"
        },
        {
          "indexed": true,
          "internalType": "bytes32",
          "name": "previousAdminRole",
          "type": "bytes32"
        },
        {
          "indexed": true,
          "internalType": "bytes32",
          "name": "newAdminRole",
          "type": "bytes32"
        }
      ],
      "name": "RoleAdminChanged",
      "type": "event"
    },
    {
      "anonymous": false,
      "inputs": [
        {
          "indexed": true,
          "internalType": "bytes32",
          "name": "role",
          "type": "bytes32"
        },
        {
          "indexed": true,
          "internalType": "address",
          "name": "account",
          "type": "address"
        },
        {
          "indexed": true,
          "internalType": "address",
          "name": "sender",
          "type": "address"
        }
      ],
      "name": "RoleGranted",
      "type": "event"
    },
    {
      "anonymous": false,
      "inputs": [
        {
          "indexed": true,
          "internalType": "bytes32",
          "name": "role",
          "type": "bytes32"
        },
        {
          "indexed": true,
          "internalType": "address",
          "name": "account",
          "type": "address"
        },
        {
          "indexed": true,
          "internalType": "address",
          "name": "sender",
          "type": "address"
        }
      ],
      "name": "RoleRevoked",
      "type": "event"
    },
    {
      "anonymous": false,
      "inputs": [
        {
          "indexed": true,
          "internalType": "address",
          "name": "user",
          "type": "address"
        },
        {
          "indexed": false,
          "internalType": "enum CrossChainDepositor.StrategyType",
          "name": "oldStrategy",
          "type": "uint8"
        },
        {
          "indexed": false,
          "internalType": "enum CrossChainDepositor.StrategyType",
          "name": "newStrategy",
          "type": "uint8"
        }
      ],
      "name": "StrategyUpdated",
      "type": "event"
    },
    {
      "anonymous": false,
      "inputs": [
        {
          "indexed": true,
          "internalType": "address",
          "name": "token",
          "type": "address"
        },
        {
          "indexed": false,
          "internalType": "uint256",
          "name": "minDeposit",
          "type": "uint256"
        },
        {
          "indexed": false,
          "internalType": "uint256",
          "name": "maxDeposit",
          "type": "uint256"
        },
        {
          "indexed": false,
          "internalType": "uint256",
          "name": "depositFee",
          "type": "uint256"
        }
      ],
      "name": "TokenConfigUpdated",
      "type": "event"
    },
    {
      "anonymous": false,
      "inputs": [
        {
          "indexed": false,
          "internalType": "address",
          "name": "account",
          "type": "address"
        }
      ],
      "name": "Unpaused",
      "type": "event"
    },
    {
      "anonymous": false,
      "inputs": [
        {
          "indexed": true,
          "internalType": "address",
          "name": "user",
          "type": "address"
        },
        {
          "indexed": true,
          "internalType": "address",
          "name": "token",
          "type": "address"
        },
        {
          "indexed": false,
          "internalType": "uint256",
          "name": "yieldAmount",
          "type": "uint256"
        },
        {
          "indexed": false,
          "internalType": "enum CrossChainDepositor.StrategyType",
          "name": "strategy",
          "type": "uint8"
        }
      ],
      "name": "YieldEarned",
      "type": "event"
    },
    {
      "anonymous": false,
      "inputs": [
        {
          "indexed": true,
          "internalType": "uint256",
          "name": "strategyId",
          "type": "uint256"
        },
        {
          "indexed": false,
          "internalType": "string",
          "name": "name",
          "type": "string"
        },
        {
          "indexed": false,
          "internalType": "address",
          "name": "strategyContract",
          "type": "address"
        },
        {
          "indexed": false,
          "internalType": "uint256",
          "name": "expectedAPY",
          "type": "uint256"
        }
      ],
      "name": "YieldStrategyAdded",
      "type": "event"
    },
    {
      "inputs": [],
      "name": "DEFAULT_ADMIN_ROLE",
      "outputs": [
        {
          "internalType": "bytes32",
          "name": "",
          "type": "bytes32"
        }
      ],
      "stateMutability": "view",
      "type": "function"
    },
    {
      "inputs": [],
      "name": "HUB_ROLE",
      "outputs": [
        {
          "internalType": "bytes32",
          "name": "",
          "type": "bytes32"
        }
      ],
      "stateMutability": "view",
      "type": "function"
    },
    {
      "inputs": [],
      "name": "KEEPER_ROLE",
      "outputs": [
        {
          "internalType": "bytes32",
          "name": "",
          "type": "bytes32"
        }
      ],
      "stateMutability": "view",
      "type": "function"
    },
    {
      "inputs": [],
      "name": "MAX_DEPOSIT_FEE",
      "outputs": [
        {
          "internalType": "uint256",
          "name": "",
          "type": "uint256"
        }
      ],
      "stateMutability": "view",
      "type": "function"
    },
    {
      "inputs": [],
      "name": "MIN_DEPOSIT_AMOUNT",
      "outputs": [
        {
          "internalType": "uint256",
          "name": "",
          "type": "uint256"
        }
      ],
      "stateMutability": "view",
      "type": "function"
    },
    {
      "inputs": [],
      "name": "PRECISION",
      "outputs": [
        {
          "internalType": "uint256",
          "name": "",
          "type": "uint256"
        }
      ],
      "stateMutability": "view",
      "type": "function"
    },
    {
      "inputs": [],
      "name": "STRATEGY_REBALANCE_INTERVAL",
      "outputs": [
        {
          "internalType": "uint256",
          "name": "",
          "type": "uint256"
        }
      ],
      "stateMutability": "view",
      "type": "function"
    },
    {
      "inputs": [],
      "name": "STRATEGY_ROLE",
      "outputs": [
        {
          "internalType": "bytes32",
          "name": "",
          "type": "bytes32"
        }
      ],
      "stateMutability": "view",
      "type": "function"
    },
    {
      "inputs": [],
      "name": "YIELD_COMPOUND_INTERVAL",
      "outputs": [
        {
          "internalType": "uint256",
          "name": "",
          "type": "uint256"
        }
      ],
      "stateMutability": "view",
      "type": "function"
    },
    {
      "inputs": [],
      "name": "acceptOwnership",
      "outputs": [],
      "stateMutability": "nonpayable",
      "type": "function"
    },
    {
      "inputs": [
        {
          "internalType": "address",
          "name": "token",
          "type": "address"
        },
        {
          "internalType": "uint256",
          "name": "minDeposit",
          "type": "uint256"
        },
        {
          "internalType": "uint256",
          "name": "maxDeposit",
          "type": "uint256"
        },
        {
          "internalType": "uint256",
          "name": "depositFee",
          "type": "uint256"
        },
        {
          "internalType": "address",
          "name": "priceFeed",
          "type": "address"
        },
        {
          "internalType": "bool",
          "name": "yieldEnabled",
          "type": "bool"
        },
        {
          "internalType": "uint256",
          "name": "yieldRate",
          "type": "uint256"
        }
      ],
      "name": "addSupportedToken",
      "outputs": [],
      "stateMutability": "nonpayable",
      "type": "function"
    },
    {
      "inputs": [
        {
          "internalType": "string",
          "name": "name",
          "type": "string"
        },
        {
          "internalType": "address",
          "name": "strategyContract",
          "type": "address"
        },
        {
          "internalType": "uint256",
          "name": "expectedAPY",
          "type": "uint256"
        },
        {
          "internalType": "uint256",
          "name": "riskLevel",
          "type": "uint256"
        },
        {
          "internalType": "uint256",
          "name": "minAmount",
          "type": "uint256"
        }
      ],
      "name": "addYieldStrategy",
      "outputs": [],
      "stateMutability": "nonpayable",
      "type": "function"
    },
    {
      "inputs": [
        {
          "components": [
            {
              "internalType": "bytes32",
              "name": "messageId",
              "type": "bytes32"
            },
            {
              "internalType": "uint64",
              "name": "sourceChainSelector",
              "type": "uint64"
            },
            {
              "internalType": "bytes",
              "name": "sender",
              "type": "bytes"
            },
            {
              "internalType": "bytes",
              "name": "data",
              "type": "bytes"
            },
            {
              "components": [
                {
                  "internalType": "address",
                  "name": "token",
                  "type": "address"
                },
                {
                  "internalType": "uint256",
                  "name": "amount",
                  "type": "uint256"
                }
              ],
              "internalType": "struct Client.EVMTokenAmount[]",
              "name": "destTokenAmounts",
              "type": "tuple[]"
            }
          ],
          "internalType": "struct Client.Any2EVMMessage",
          "name": "message",
          "type": "tuple"
        }
      ],
      "name": "ccipReceive",
      "outputs": [],
      "stateMutability": "nonpayable",
      "type": "function"
    },
    {
      "inputs": [
        {
          "internalType": "bytes",
          "name": "",
          "type": "bytes"
        }
      ],
      "name": "checkUpkeep",
      "outputs": [
        {
          "internalType": "bool",
          "name": "upkeepNeeded",
          "type": "bool"
        },
        {
          "internalType": "bytes",
          "name": "performData",
          "type": "bytes"
        }
      ],
      "stateMutability": "view",
      "type": "function"
    },
    {
      "inputs": [
        {
          "internalType": "address",
          "name": "token",
          "type": "address"
        }
      ],
      "name": "claimYield",
      "outputs": [],
      "stateMutability": "nonpayable",
      "type": "function"
    },
    {
      "inputs": [
        {
          "internalType": "bytes32",
          "name": "",
          "type": "bytes32"
        }
      ],
      "name": "crossChainMessages",
      "outputs": [
        {
          "internalType": "address",
          "name": "user",
          "type": "address"
        },
        {
          "internalType": "address",
          "name": "token",
          "type": "address"
        },
        {
          "internalType": "uint256",
          "name": "amount",
          "type": "uint256"
        },
        {
          "internalType": "uint256",
          "name": "timestamp",
          "type": "uint256"
        },
        {
          "internalType": "enum CrossChainDepositor.MessageType",
          "name": "messageType",
          "type": "uint8"
        },
        {
          "internalType": "bytes",
          "name": "additionalData",
          "type": "bytes"
        }
      ],
      "stateMutability": "view",
      "type": "function"
    },
    {
      "inputs": [
        {
          "internalType": "address",
          "name": "token",
          "type": "address"
        },
        {
          "internalType": "uint256",
          "name": "amount",
          "type": "uint256"
        },
        {
          "internalType": "enum CrossChainDepositor.StrategyType",
          "name": "strategy",
          "type": "uint8"
        },
        {
          "internalType": "bool",
          "name": "enableAutoCompound",
          "type": "bool"
        }
      ],
      "name": "deposit",
      "outputs": [
        {
          "internalType": "bytes32",
          "name": "depositId",
          "type": "bytes32"
        }
      ],
      "stateMutability": "nonpayable",
      "type": "function"
    },
    {
      "inputs": [
        {
          "internalType": "uint256",
          "name": "",
          "type": "uint256"
        }
      ],
      "name": "depositIds",
      "outputs": [
        {
          "internalType": "bytes32",
          "name": "",
          "type": "bytes32"
        }
      ],
      "stateMutability": "view",
      "type": "function"
    },
    {
      "inputs": [
        {
          "internalType": "bytes32",
          "name": "",
          "type": "bytes32"
        }
      ],
      "name": "deposits",
      "outputs": [
        {
          "internalType": "address",
          "name": "user",
          "type": "address"
        },
        {
          "internalType": "address",
          "name": "token",
          "type": "address"
        },
        {
          "internalType": "uint256",
          "name": "amount",
          "type": "uint256"
        },
        {
          "internalType": "uint64",
          "name": "destinationChain",
          "type": "uint64"
        },
        {
          "internalType": "uint256",
          "name": "timestamp",
          "type": "uint256"
        },
        {
          "internalType": "enum CrossChainDepositor.DepositStatus",
          "name": "status",
          "type": "uint8"
        },
        {
          "internalType": "bytes32",
          "name": "ccipMessageId",
          "type": "bytes32"
        },
        {
          "internalType": "uint256",
          "name": "yieldEarned",
          "type": "uint256"
        },
        {
          "internalType": "enum CrossChainDepositor.StrategyType",
          "name": "strategy",
          "type": "uint8"
        }
      ],
      "stateMutability": "view",
      "type": "function"
    },
    {
      "inputs": [],
      "name": "emergencyPause",
      "outputs": [],
      "stateMutability": "nonpayable",
      "type": "function"
    },
    {
      "inputs": [],
      "name": "emergencyUnpause",
      "outputs": [],
      "stateMutability": "nonpayable",
      "type": "function"
    },
    {
      "inputs": [
        {
          "internalType": "bytes32",
          "name": "depositId",
          "type": "bytes32"
        }
      ],
      "name": "getDepositInfo",
      "outputs": [
        {
          "components": [
            {
              "internalType": "address",
              "name": "user",
              "type": "address"
            },
            {
              "internalType": "address",
              "name": "token",
              "type": "address"
            },
            {
              "internalType": "uint256",
              "name": "amount",
              "type": "uint256"
            },
            {
              "internalType": "uint64",
              "name": "destinationChain",
              "type": "uint64"
            },
            {
              "internalType": "uint256",
              "name": "timestamp",
              "type": "uint256"
            },
            {
              "internalType": "enum CrossChainDepositor.DepositStatus",
              "name": "status",
              "type": "uint8"
            },
            {
              "internalType": "bytes32",
              "name": "ccipMessageId",
              "type": "bytes32"
            },
            {
              "internalType": "uint256",
              "name": "yieldEarned",
              "type": "uint256"
            },
            {
              "internalType": "enum CrossChainDepositor.StrategyType",
              "name": "strategy",
              "type": "uint8"
            }
          ],
          "internalType": "struct CrossChainDepositor.DepositInfo",
          "name": "",
          "type": "tuple"
        }
      ],
      "stateMutability": "view",
      "type": "function"
    },
    {
      "inputs": [],
      "name": "getProtocolStats",
      "outputs": [
        {
          "internalType": "uint256",
          "name": "_totalValueLocked",
          "type": "uint256"
        },
        {
          "internalType": "uint256",
          "name": "_totalYieldGenerated",
          "type": "uint256"
        },
        {
          "internalType": "uint256",
          "name": "_totalDepositsCount",
          "type": "uint256"
        },
        {
          "internalType": "uint256",
          "name": "_protocolFees",
          "type": "uint256"
        },
        {
          "internalType": "uint256",
          "name": "_supportedTokensCount",
          "type": "uint256"
        }
      ],
      "stateMutability": "view",
      "type": "function"
    },
    {
      "inputs": [
        {
          "internalType": "bytes32",
          "name": "role",
          "type": "bytes32"
        }
      ],
      "name": "getRoleAdmin",
      "outputs": [
        {
          "internalType": "bytes32",
          "name": "",
          "type": "bytes32"
        }
      ],
      "stateMutability": "view",
      "type": "function"
    },
    {
      "inputs": [],
      "name": "getRouter",
      "outputs": [
        {
          "internalType": "address",
          "name": "",
          "type": "address"
        }
      ],
      "stateMutability": "view",
      "type": "function"
    },
    {
      "inputs": [],
      "name": "getSupportedTokens",
      "outputs": [
        {
          "internalType": "address[]",
          "name": "",
          "type": "address[]"
        }
      ],
      "stateMutability": "view",
      "type": "function"
    },
    {
      "inputs": [
        {
          "internalType": "address",
          "name": "token",
          "type": "address"
        }
      ],
      "name": "getTokenConfig",
      "outputs": [
        {
          "components": [
            {
              "internalType": "bool",
              "name": "isSupported",
              "type": "bool"
            },
            {
              "internalType": "uint256",
              "name": "minDeposit",
              "type": "uint256"
            },
            {
              "internalType": "uint256",
              "name": "maxDeposit",
              "type": "uint256"
            },
            {
              "internalType": "uint256",
              "name": "depositFee",
              "type": "uint256"
            },
            {
              "internalType": "address",
              "name": "priceFeed",
              "type": "address"
            },
            {
              "internalType": "bool",
              "name": "yieldEnabled",
              "type": "bool"
            },
            {
              "internalType": "uint256",
              "name": "yieldRate",
              "type": "uint256"
            }
          ],
          "internalType": "struct CrossChainDepositor.TokenConfig",
          "name": "",
          "type": "tuple"
        }
      ],
      "stateMutability": "view",
      "type": "function"
    },
    {
      "inputs": [
        {
          "internalType": "address",
          "name": "user",
          "type": "address"
        }
      ],
      "name": "getUserDepositHistory",
      "outputs": [
        {
          "internalType": "bytes32[]",
          "name": "userDeposits",
          "type": "bytes32[]"
        }
      ],
      "stateMutability": "view",
      "type": "function"
    },
    {
      "inputs": [
        {
          "internalType": "address",
          "name": "user",
          "type": "address"
        }
      ],
      "name": "getUserProfile",
      "outputs": [
        {
          "internalType": "uint256",
          "name": "totalDeposited",
          "type": "uint256"
        },
        {
          "internalType": "uint256",
          "name": "totalYieldEarned",
          "type": "uint256"
        },
        {
          "internalType": "uint256",
          "name": "depositCount",
          "type": "uint256"
        },
        {
          "internalType": "uint256",
          "name": "lastDepositTime",
          "type": "uint256"
        },
        {
          "internalType": "uint256",
          "name": "riskTolerance",
          "type": "uint256"
        },
        {
          "internalType": "bool",
          "name": "autoYieldEnabled",
          "type": "bool"
        },
        {
          "internalType": "enum CrossChainDepositor.StrategyType",
          "name": "preferredStrategy",
          "type": "uint8"
        }
      ],
      "stateMutability": "view",
      "type": "function"
    },
    {
      "inputs": [
        {
          "internalType": "address",
          "name": "user",
          "type": "address"
        },
        {
          "internalType": "address",
          "name": "token",
          "type": "address"
        }
      ],
      "name": "getUserTokenBalance",
      "outputs": [
        {
          "internalType": "uint256",
          "name": "",
          "type": "uint256"
        }
      ],
      "stateMutability": "view",
      "type": "function"
    },
    {
      "inputs": [
        {
          "internalType": "address",
          "name": "user",
          "type": "address"
        },
        {
          "internalType": "address",
          "name": "token",
          "type": "address"
        }
      ],
      "name": "getUserYieldBalance",
      "outputs": [
        {
          "internalType": "uint256",
          "name": "",
          "type": "uint256"
        }
      ],
      "stateMutability": "view",
      "type": "function"
    },
    {
      "inputs": [
        {
          "internalType": "uint256",
          "name": "strategyId",
          "type": "uint256"
        }
      ],
      "name": "getYieldStrategy",
      "outputs": [
        {
          "components": [
            {
              "internalType": "string",
              "name": "name",
              "type": "string"
            },
            {
              "internalType": "address",
              "name": "strategyContract",
              "type": "address"
            },
            {
              "internalType": "uint256",
              "name": "expectedAPY",
              "type": "uint256"
            },
            {
              "internalType": "uint256",
              "name": "riskLevel",
              "type": "uint256"
            },
            {
              "internalType": "uint256",
              "name": "minAmount",
              "type": "uint256"
            },
            {
              "internalType": "bool",
              "name": "isActive",
              "type": "bool"
            },
            {
              "internalType": "uint256",
              "name": "totalDeposited",
              "type": "uint256"
            },
            {
              "internalType": "uint256",
              "name": "totalYieldGenerated",
              "type": "uint256"
            }
          ],
          "internalType": "struct CrossChainDepositor.YieldStrategy",
          "name": "",
          "type": "tuple"
        }
      ],
      "stateMutability": "view",
      "type": "function"
    },
    {
      "inputs": [
        {
          "internalType": "bytes32",
          "name": "role",
          "type": "bytes32"
        },
        {
          "internalType": "address",
          "name": "account",
          "type": "address"
        }
      ],
      "name": "grantRole",
      "outputs": [],
      "stateMutability": "nonpayable",
      "type": "function"
    },
    {
      "inputs": [
        {
          "internalType": "bytes32",
          "name": "role",
          "type": "bytes32"
        },
        {
          "internalType": "address",
          "name": "account",
          "type": "address"
        }
      ],
      "name": "hasRole",
      "outputs": [
        {
          "internalType": "bool",
          "name": "",
          "type": "bool"
        }
      ],
      "stateMutability": "view",
      "type": "function"
    },
    {
      "inputs": [],
      "name": "hubChainSelector",
      "outputs": [
        {
          "internalType": "uint64",
          "name": "",
          "type": "uint64"
        }
      ],
      "stateMutability": "view",
      "type": "function"
    },
    {
      "inputs": [],
      "name": "hubContract",
      "outputs": [
        {
          "internalType": "address",
          "name": "",
          "type": "address"
        }
      ],
      "stateMutability": "view",
      "type": "function"
    },
    {
      "inputs": [],
      "name": "lastMaintenanceTime",
      "outputs": [
        {
          "internalType": "uint256",
          "name": "",
          "type": "uint256"
        }
      ],
      "stateMutability": "view",
      "type": "function"
    },
    {
      "inputs": [],
      "name": "linkToken",
      "outputs": [
        {
          "internalType": "contract LinkTokenInterface",
          "name": "",
          "type": "address"
        }
      ],
      "stateMutability": "view",
      "type": "function"
    },
    {
      "inputs": [],
      "name": "owner",
      "outputs": [
        {
          "internalType": "address",
          "name": "",
          "type": "address"
        }
      ],
      "stateMutability": "view",
      "type": "function"
    },
    {
      "inputs": [],
      "name": "paused",
      "outputs": [
        {
          "internalType": "bool",
          "name": "",
          "type": "bool"
        }
      ],
      "stateMutability": "view",
      "type": "function"
    },
    {
      "inputs": [
        {
          "internalType": "bytes",
          "name": "performData",
          "type": "bytes"
        }
      ],
      "name": "performUpkeep",
      "outputs": [],
      "stateMutability": "nonpayable",
      "type": "function"
    },
    {
      "inputs": [],
      "name": "protocolFees",
      "outputs": [
        {
          "internalType": "uint256",
          "name": "",
          "type": "uint256"
        }
      ],
      "stateMutability": "view",
      "type": "function"
    },
    {
      "inputs": [
        {
          "internalType": "bytes32",
          "name": "role",
          "type": "bytes32"
        },
        {
          "internalType": "address",
          "name": "callerConfirmation",
          "type": "address"
        }
      ],
      "name": "renounceRole",
      "outputs": [],
      "stateMutability": "nonpayable",
      "type": "function"
    },
    {
      "inputs": [
        {
          "internalType": "bytes32",
          "name": "role",
          "type": "bytes32"
        },
        {
          "internalType": "address",
          "name": "account",
          "type": "address"
        }
      ],
      "name": "revokeRole",
      "outputs": [],
      "stateMutability": "nonpayable",
      "type": "function"
    },
    {
      "inputs": [],
      "name": "strategiesCount",
      "outputs": [
        {
          "internalType": "uint256",
          "name": "",
          "type": "uint256"
        }
      ],
      "stateMutability": "view",
      "type": "function"
    },
    {
      "inputs": [
        {
          "internalType": "uint256",
          "name": "",
          "type": "uint256"
        }
      ],
      "name": "supportedTokens",
      "outputs": [
        {
          "internalType": "address",
          "name": "",
          "type": "address"
        }
      ],
      "stateMutability": "view",
      "type": "function"
    },
    {
      "inputs": [
        {
          "internalType": "bytes4",
          "name": "interfaceId",
          "type": "bytes4"
        }
      ],
      "name": "supportsInterface",
      "outputs": [
        {
          "internalType": "bool",
          "name": "",
          "type": "bool"
        }
      ],
      "stateMutability": "view",
      "type": "function"
    },
    {
      "inputs": [
        {
          "internalType": "address",
          "name": "",
          "type": "address"
        }
      ],
      "name": "tokenConfigs",
      "outputs": [
        {
          "internalType": "bool",
          "name": "isSupported",
          "type": "bool"
        },
        {
          "internalType": "uint256",
          "name": "minDeposit",
          "type": "uint256"
        },
        {
          "internalType": "uint256",
          "name": "maxDeposit",
          "type": "uint256"
        },
        {
          "internalType": "uint256",
          "name": "depositFee",
          "type": "uint256"
        },
        {
          "internalType": "address",
          "name": "priceFeed",
          "type": "address"
        },
        {
          "internalType": "bool",
          "name": "yieldEnabled",
          "type": "bool"
        },
        {
          "internalType": "uint256",
          "name": "yieldRate",
          "type": "uint256"
        }
      ],
      "stateMutability": "view",
      "type": "function"
    },
    {
      "inputs": [
        {
          "internalType": "address",
          "name": "",
          "type": "address"
        }
      ],
      "name": "tokenTotalDeposits",
      "outputs": [
        {
          "internalType": "uint256",
          "name": "",
          "type": "uint256"
        }
      ],
      "stateMutability": "view",
      "type": "function"
    },
    {
      "inputs": [],
      "name": "totalDepositsCount",
      "outputs": [
        {
          "internalType": "uint256",
          "name": "",
          "type": "uint256"
        }
      ],
      "stateMutability": "view",
      "type": "function"
    },
    {
      "inputs": [],
      "name": "totalValueLocked",
      "outputs": [
        {
          "internalType": "uint256",
          "name": "",
          "type": "uint256"
        }
      ],
      "stateMutability": "view",
      "type": "function"
    },
    {
      "inputs": [],
      "name": "totalYieldGenerated",
      "outputs": [
        {
          "internalType": "uint256",
          "name": "",
          "type": "uint256"
        }
      ],
      "stateMutability": "view",
      "type": "function"
    },
    {
      "inputs": [
        {
          "internalType": "address",
          "name": "to",
          "type": "address"
        }
      ],
      "name": "transferOwnership",
      "outputs": [],
      "stateMutability": "nonpayable",
      "type": "function"
    },
    {
      "inputs": [
        {
          "internalType": "enum CrossChainDepositor.StrategyType",
          "name": "newStrategy",
          "type": "uint8"
        },
        {
          "internalType": "uint256",
          "name": "riskTolerance",
          "type": "uint256"
        }
      ],
      "name": "updateStrategy",
      "outputs": [],
      "stateMutability": "nonpayable",
      "type": "function"
    },
    {
      "inputs": [
        {
          "internalType": "address",
          "name": "token",
          "type": "address"
        },
        {
          "internalType": "uint256",
          "name": "minDeposit",
          "type": "uint256"
        },
        {
          "internalType": "uint256",
          "name": "maxDeposit",
          "type": "uint256"
        },
        {
          "internalType": "uint256",
          "name": "depositFee",
          "type": "uint256"
        },
        {
          "internalType": "uint256",
          "name": "yieldRate",
          "type": "uint256"
        }
      ],
      "name": "updateTokenConfig",
      "outputs": [],
      "stateMutability": "nonpayable",
      "type": "function"
    },
    {
      "inputs": [
        {
          "internalType": "address",
          "name": "",
          "type": "address"
        }
      ],
      "name": "userProfiles",
      "outputs": [
        {
          "internalType": "uint256",
          "name": "totalDeposited",
          "type": "uint256"
        },
        {
          "internalType": "uint256",
          "name": "totalYieldEarned",
          "type": "uint256"
        },
        {
          "internalType": "uint256",
          "name": "depositCount",
          "type": "uint256"
        },
        {
          "internalType": "uint256",
          "name": "lastDepositTime",
          "type": "uint256"
        },
        {
          "internalType": "uint256",
          "name": "riskTolerance",
          "type": "uint256"
        },
        {
          "internalType": "bool",
          "name": "autoYieldEnabled",
          "type": "bool"
        },
        {
          "internalType": "enum CrossChainDepositor.StrategyType",
          "name": "preferredStrategy",
          "type": "uint8"
        }
      ],
      "stateMutability": "view",
      "type": "function"
    },
    {
      "inputs": [
        {
          "internalType": "address",
          "name": "",
          "type": "address"
        },
        {
          "internalType": "address",
          "name": "",
          "type": "address"
        }
      ],
      "name": "userTokenDeposits",
      "outputs": [
        {
          "internalType": "uint256",
          "name": "",
          "type": "uint256"
        }
      ],
      "stateMutability": "view",
      "type": "function"
    },
    {
      "inputs": [
        {
          "internalType": "address",
          "name": "token",
          "type": "address"
        },
        {
          "internalType": "uint256",
          "name": "amount",
          "type": "uint256"
        }
      ],
      "name": "withdraw",
      "outputs": [],
      "stateMutability": "nonpayable",
      "type": "function"
    },
    {
      "inputs": [
        {
          "internalType": "address",
          "name": "token",
          "type": "address"
        },
        {
          "internalType": "uint256",
          "name": "amount",
          "type": "uint256"
        }
      ],
      "name": "withdrawProtocolFees",
      "outputs": [],
      "stateMutability": "nonpayable",
      "type": "function"
    },
    {
      "inputs": [
        {
          "internalType": "uint256",
          "name": "",
          "type": "uint256"
        }
      ],
      "name": "yieldStrategies",
      "outputs": [
        {
          "internalType": "string",
          "name": "name",
          "type": "string"
        },
        {
          "internalType": "address",
          "name": "strategyContract",
          "type": "address"
        },
        {
          "internalType": "uint256",
          "name": "expectedAPY",
          "type": "uint256"
        },
        {
          "internalType": "uint256",
          "name": "riskLevel",
          "type": "uint256"
        },
        {
          "internalType": "uint256",
          "name": "minAmount",
          "type": "uint256"
        },
        {
          "internalType": "bool",
          "name": "isActive",
          "type": "bool"
        },
        {
          "internalType": "uint256",
          "name": "totalDeposited",
          "type": "uint256"
        },
        {
          "internalType": "uint256",
          "name": "totalYieldGenerated",
          "type": "uint256"
        }
      ],
      "stateMutability": "view",
      "type": "function"
    }
  ],
  "bytecode": "0x61010034620001bc576001600160401b03601f62003e4038819003918201601f191684019183831185841017620001c157808592608094604052833981010312620001bc576200004f82620001d7565b906200005e60208401620001d7565b9260408101519182168203620001bc5760606200007c9101620001d7565b916001600160a01b039081811615620001a35760805233156200015e57620000d1933360018060a01b0319600054161760005560016002551660a05260c0528060e052620000ca33620001ec565b506200026d565b5042601055604051613b0f908162000311823960805181818161117b0152611655015260a05181818161061001528181611b68015281816122090152612336015260c05181818161067d0152818161114101528181611dfc0152818161207801528181612270015261238c015260e05181818161054f0152818161155401528181611767015261213c0152f35b60405162461bcd60e51b815260206004820152601860248201527f43616e6e6f7420736574206f776e657220746f207a65726f00000000000000006044820152606490fd5b6040516335fdcccd60e21b815260006004820152602490fd5b600080fd5b634e487b7160e01b600052604160045260246000fd5b51906001600160a01b0382168203620001bc57565b6001600160a01b031660008181527f17ef568e3e12ab5b9c7254a8d58478811de00f9e6eb34345acd53bf8fd09d3ec602052604081205490919060ff16620002695781805260046020526040822081835260205260408220600160ff19825416179055339160008051602062003e208339815191528180a4600190565b5090565b6001600160a01b031660008181527f18ada9812065d5758eaa74ef18a1e849df4ca092ba2be4977644e6c82a98447560205260408120549091907f4761169e40d0efb53bf684d47e54c803c1511483244b1a2fca6dbbd91b4508d59060ff166200030b5780835260046020526040832082845260205260408320600160ff1982541617905560008051602062003e20833981519152339380a4600190565b50509056fe608080604052600436101561001357600080fd5b60003560e01c90816301ffc9a7146130815750806307cea5f01461303057806308bf181414612ead5780630ccb091d14612e005780631a7a73c214612d785780631ad8b03b14612d5a5780631b69dc5f14612cd45780631ea30fef14612cb6578063243745d014612bef5780632489f7f714612bd1578063248a9ca314612ba2578063299f91ba14612b845780632f2ff15d14612b45578063332d56d71461143a57806333e4220714612a7d578063364bc15a14612a4257806336568abe146129fb5780633d4dff7b1461294b57806340d5d5461461292d5780634585e33b146128e757806345bd2875146127875780634a4e3bd51461271d57806351858e27146126c3578063576f49dd14611b9757806357970e9314611b52578063580b7c2e14611b175780635c975abb14611af45780636e04ff0d14611a3157806373f8fd4b146119dd578063771aceef1461199d57806379ba5097146118f457806385572ffb146116175780638c825056146115f95780638da5cb5b146115d057806391d1485414611583578063934666e51461153e57806395b47dfa146114da57806396c61777146114a3578063987ee1561461143a578063999927df146112dc57806399dac981146112a15780639a5e6d23146111e9578063a217fddf146111cd578063aaf5eb68146111aa578063b0f479a114611165578063b99aa29714611121578063bbc98e2f14610f9b578063bf849b7214610f7d578063c625562614610f3b578063c6d87dd514610f1e578063c847119d14610f00578063cb67e3b114610e04578063d3c7c2c714610d3c578063d547741f14610cfb578063dbc0d53814610989578063ec18154e1461096b578063f2fde38b14610876578063f3fef3a31461042a578063f6eb513b146103f05763ff57f034146102b357600080fd5b346103eb576020806003193601126103eb576103ba90600060e06040516102d98161328a565b6060815282848201528260408201528260608201528260808201528260a08201528260c082015201526004356000526007815260406000206040519161031e8361328a565b6040516103368161032f818661316c565b03826132a6565b835260018060a01b0380600184015416928285019384526002810154604086019081526003820154606087019081526004830154906080880191825260ff6005850154169260a089019315158452600760068601549560c08b0196875201549560e08a019687526040519a8b9a898c5251610100809a8d01526101208c01906132ea565b98511660408a01525160608901525160808801525160a087015251151560c08601525160e085015251908301520390f35b600080fd5b346103eb5760203660031901126103eb576001600160a01b03610411613106565b16600052600b6020526020604060002054604051908152f35b346103eb5760403660031901126103eb57610443613106565b6024359061044f6136df565b6104576136c1565b60018060a01b039081811691826000526020926006845260ff604060002054161561085e57336000526008845260406000206003810190826000528186526040600020548781106108405750866105e2936105d6979893610548936104bc8933613884565b91836000528b5260406000206104d385825461361d565b90556104e084825461361d565b81558161080c575b505033600052600a89526040600020816000528952604060002061050d83825461361d565b905580600052600b8952604060002061052783825461361d565b905561053e610536838961395e565b600c5461361d565b600c553390613700565b60405193837f0000000000000000000000000000000000000000000000000000000000000000168786015286855261057f85613239565b60408051338982019081526001600160a01b03909316602084015290820192909252819060600103906105ba601f19928381018352826132a6565b60405195869160018984015260408084015260608301906132ea565b039081018552846132a6565b6040516105ee81613254565b6000815261060c60405161060181613254565b62030d40815261384d565b90827f000000000000000000000000000000000000000000000000000000000000000016946040519461063e8661326f565b8552868501526040840152836060840152608083015260405163b0f479a160e01b81528481600481305afa908115610774576000916107df575b5016907f000000000000000000000000000000000000000000000000000000000000000091604051936320487ded60e01b85528585806106bc86886004840161376c565b0381855afa80156107745786956000916107ad575b5060405163095ea7b360e01b81526001600160a01b038416600482015260248101919091529490859060449082906000905af192831561077457610735948694610780575b5060006040518096819582946396f4e9f960e01b84526004840161376c565b03925af180156107745761074b575b6001600255005b813d831161076d575b61075e81836132a6565b810103126103eb578080610744565b503d610754565b6040513d6000823e3d90fd5b61079f90853d87116107a6575b61079781836132a6565b810190613835565b5086610716565b503d61078d565b86819792503d83116107d8575b6107c481836132a6565b810103126103eb57935185949060006106d1565b503d6107ba565b6107ff9150853d8711610805575b6107f781836132a6565b81019061374d565b85610678565b503d6107ed565b60016108379184600052600481018d52604060002061082c85825461362a565b90550191825461362a565b905589806104e8565b876044916040519163cf47918160e01b835260048301526024820152fd5b602490604051906306439c6b60e01b82526004820152fd5b346103eb5760203660031901126103eb5761088f613106565b6000546001600160a01b03908116913383900361092d5716903382146108e857600180546001600160a01b031916831790557fed8889f560326eb138920d842192f0eb3dd22b4f139c87a2c57538e05bae1278600080a3005b60405162461bcd60e51b815260206004820152601760248201527f43616e6e6f74207472616e7366657220746f2073656c660000000000000000006044820152606490fd5b60405162461bcd60e51b815260206004820152601660248201527527b7363c9031b0b63630b1363290313c9037bbb732b960511b6044820152606490fd5b346103eb5760003660031901126103eb576020600c54604051908152f35b346103eb5760a03660031901126103eb576001600160401b036004358181116103eb57366023820112156103eb576109cb903690602481600401359101613431565b6109d361311c565b3360009081527fa62857c6caf5c320fc222b344ddd616fffab22759dd00abe53a8646de63742ef60205260409020547f928286c473ded01ff8bf61a1986f14a0579066072fa8261442d9fea514d93a4c9060ff1615610cdd575060643592600184101580610cd2575b15610c985760405193610a4e8561328a565b83855260018060a01b0383166020860152604435604086015260608501526084356080850152600160a0850152600060c0850152600060e0850152601154600052600760205260406000209084518051918211610c8257610aaf8354613132565b601f8111610c3e575b50602090601f8311600114610bcc57958260079360e093610bbc99600092610bc1575b50508160011b916000199060031b1c19161784555b6001840160018060a01b036020830151166001600160601b0360a01b825416179055604081015160028501556060810151600385015560808101516004850155610b4f60a08201511515600586019060ff801983541691151516179055565b60c0810151600685015501519101557f99adad87846d8e493e79a94ad049b3cc6a4a51e67733d8c3c0681cc53b853d23610b9c6011549384936040519283926060845260608401906132ea565b6001600160a01b03909116602083015260443560408301520390a2613637565b601155005b015190508980610adb565b908360005260206000209160005b601f1985168110610c2657508360e093610bbc9993600193600797601f19811610610c0d575b505050811b018455610af0565b015160001960f88460031b161c19169055898080610c00565b91926020600181928685015181550194019201610bda565b836000526020600020601f840160051c810160208510610c7b575b601f830160051c82018110610c6f575050610ab8565b60008155600101610c59565b5080610c59565b634e487b7160e01b600052604160045260246000fd5b60405162461bcd60e51b8152602060048201526012602482015271125b9d985b1a59081c9a5cdac81b195d995b60721b6044820152606490fd5b50600a841115610a3c565b6044906040519063e2517d3f60e01b82523360048301526024820152fd5b346103eb5760403660031901126103eb57610d3a600435610d1a61311c565b90806000526004602052610d356001604060002001546134d7565b61357d565b005b346103eb5760003660031901126103eb57604051806013548083526020809301809160136000527f66de8ffda797e3de9c05e8fc57b3bf0ec28a930d40b0d285d93c06501cf6a0909060005b86828210610de7578686610d9e828803836132a6565b604051928392818401908285525180915260408401929160005b828110610dc757505050500390f35b83516001600160a01b031685528695509381019392810192600101610db8565b83546001600160a01b031685529093019260019283019201610d88565b346103eb5760203660031901126103eb5760e0610e1f613106565b600060c0604051610e2f8161321e565b8281528260208201528260408201528260608201528260808201528260a0820152015260018060a01b038091166000526006602052604060002060405190610e768261321e565b60ff815416151592838352600182015491602084019283526002810154604085019081526003820154906060860191825260048301549460c060056080890195878916875260ff60a08b019960a01c1615158952015497019687526040519788525160208801525160408701525160608601525116608084015251151560a08301525160c0820152f35b346103eb5760003660031901126103eb576020600e54604051908152f35b346103eb5760003660031901126103eb5760206040516103e88152f35b346103eb5760203660031901126103eb576004356013548110156103eb57610f646020916133df565b905460405160039290921b1c6001600160a01b03168152f35b346103eb5760003660031901126103eb57602060405162093a808152f35b346103eb5760e03660031901126103eb57610fb4613106565b6001600160a01b03604435602435606435608435848116908190036103eb5760a435958615158097036103eb57600590610fec61349d565b610ffa6103e8851115613a9e565b604051926110078461321e565b600184526020840198868a526040850188815260608601908782526080870193845260a087019283528a60c088019560c4358752169b8c6000526006602052611064604060002098511515899060ff801983541691151516179055565b516001880155516002870155516003860155886004860192511682549160ff60a01b9051151560a01b16916affffffffffffffffffffff60a81b16171790555191015560135490600160401b821015610c82577fda3ebad850b451858e5bce04ae8424df09b3822e04d19cac5fe9808ea49ef184946110ec83600161111c95016013556133df565b819291549060031b9189831b921b1916179055604051938493846040919493926060820195825260208201520152565b0390a2005b346103eb5760003660031901126103eb5760206040516001600160401b037f0000000000000000000000000000000000000000000000000000000000000000168152f35b346103eb5760003660031901126103eb576040517f00000000000000000000000000000000000000000000000000000000000000006001600160a01b03168152602090f35b346103eb5760003660031901126103eb576020604051670de0b6b3a76400008152f35b346103eb5760003660031901126103eb57602060405160008152f35b346103eb5760203660031901126103eb5760043560005260096020526040600020600560018060a01b03918281541692600182015416600282015460038301549161124d60ff60048601541694611246604051809881930161316c565b03866132a6565b604051958652602086015260408501526060840152600481101561128b57829161128791608084015260c060a084015260c08301906132ea565b0390f35b634e487b7160e01b600052602160045260246000fd5b346103eb5760003660031901126103eb5760206040517f4761169e40d0efb53bf684d47e54c803c1511483244b1a2fca6dbbd91b4508d58152f35b346103eb576020806003193601126103eb576112f6613106565b6112fe6136df565b6113066136c1565b6001600160a01b038116600081815260068452604090205490929060ff161561142157336000526008815261134060406000209233613884565b9160048101928460005283835261135c8160406000205461362a565b9384156113e8579160079160ff93876000528552600060408120556113866001830191825461362a565b905561139485600d5461362a565b600d556113a2853388613700565b015460081c16906040519283526113b88261330f565b8201527f6023bc06a5239f9b913b7bce5627571f4266de92740dbb5df27051d73a1bb2b060403392a36001600255005b60405162461bcd60e51b81526004810185905260116024820152704e6f207969656c6420746f20636c61696d60781b6044820152606490fd5b6040516306439c6b60e01b815260048101849052602490fd5b346103eb5760203660031901126103eb576001600160a01b0361145b613106565b1660005260086020526040600020805490611287600182015491600281015493600582015491600760068201549101549260405196879660ff808760081c1696169488613319565b346103eb5760203660031901126103eb576004356012548110156103eb576114cc6020916133a8565b90546040519160031b1c8152f35b346103eb5760403660031901126103eb5760206115366114f8613106565b61153061150361311c565b60018060a01b03808416600052600886526004604060002001908216600052855260406000205492613884565b9061362a565b604051908152f35b346103eb5760003660031901126103eb576040517f00000000000000000000000000000000000000000000000000000000000000006001600160a01b03168152602090f35b346103eb5760403660031901126103eb5761159c61311c565b600435600052600460205260406000209060018060a01b0316600052602052602060ff604060002054166040519015158152f35b346103eb5760003660031901126103eb576000546040516001600160a01b039091168152602090f35b346103eb5760003660031901126103eb576020600d54604051908152f35b346103eb57600319602036820181136103eb57600435916001600160401b03908184116103eb5760a09084360301126103eb576001600160a01b03927f0000000000000000000000000000000000000000000000000000000000000000841633036118dc576040516116888161326f565b81600401358152602482013583811681036103eb578482015260448201358381116103eb576116bd9060043691850101613468565b906040810191825260648301358481116103eb576116e19060043691860101613468565b92606082019384526084810135908582116103eb570190366023830112156103eb5760048201359161171283613486565b9261172060405194856132a6565b80845260248885019160061b830101913683116103eb57602401905b82821061189f57505050608001525183818051810103126103eb578301518481168091036103eb57847f0000000000000000000000000000000000000000000000000000000000000000160361186457519182518301916040848385019403126103eb57818401519360048510156103eb5760408101519182116103eb57019282603f850112156103eb5781840151936117d585613416565b946117e360405196876132a6565b80865283860194604082840101116103eb5784604061180293016132c7565b610d3a576040838051810103126103eb5760407f9d39974c480d889b2e46ed1adc6e673ef0ea9f11554437438b05a17cecbde95e9251930151938360005260058252604060002060058101600360ff19825416179055541693604051908152a3005b60405162461bcd60e51b81526004810184905260136024820152722ab730baba3437b934bd32b21039b2b73232b960691b6044820152606490fd5b6040823603126103eb57604051906118b682613239565b8235908b821682036103eb57828b9260409452828501358382015281520191019061173c565b6040516335fdcccd60e21b8152336004820152602490fd5b346103eb5760003660031901126103eb576001546001600160a01b03808216330361195f57600054916001600160601b0360a01b903382851617600055166001553391167f8be0079c531659141344cd1fd0a4f28419497f9722a3daafe3b4186f6b6457e0600080a3005b60405162461bcd60e51b815260206004820152601660248201527526bab9ba10313290383937b837b9b2b21037bbb732b960511b6044820152606490fd5b346103eb5760003660031901126103eb5760a0600c54600d54600e54600f5490601354926040519485526020850152604084015260608301526080820152f35b346103eb5760403660031901126103eb576119f6613106565b6119fe61311c565b9060018060a01b038091166000526008602052600360406000200191166000526020526020604060002054604051908152f35b346103eb57611a3f36613352565b5050606060105462015180611a54824261361d565b11610e10611a7162093a80611a69854261361d565b11934261361d565b1181928215611aec575b8315611ae3575b83611aa9575b505050611287604051928392151583526040602084015260408301906132ea565b604094929394519360208501526040840152818301528152608081018181106001600160401b03821117610c825760405290828080611a88565b92508092611a82565b925082611a7b565b346103eb5760003660031901126103eb57602060ff600354166040519015158152f35b346103eb5760003660031901126103eb5760206040517f928286c473ded01ff8bf61a1986f14a0579066072fa8261442d9fea514d93a4c8152f35b346103eb5760003660031901126103eb576040517f00000000000000000000000000000000000000000000000000000000000000006001600160a01b03168152602090f35b346103eb5760803660031901126103eb57611bb0613106565b600560443510156103eb576064351515606435036103eb57611bd06136df565b611bd86136c1565b6001600160a01b03811660009081526006602052604090205460ff16156126a15760018060a01b0381166000526006602052604060002060405190611c1c8261321e565b60ff815416151582526005600182015491826020850152600281015460408501526003810154606085015260ff600482015460018060a01b038116608087015260a01c16151560a0850152015460c08301528060243510612681575060400151806024351161266157506040516323b872dd60e01b602082015233602480830191909152306044830152356064808301919091528152611cd090611cc16084826132a6565b6001600160a01b038316613665565b60018060a01b03811660005260066020526040600020612710611d5360405192611cf98461321e565b60ff815416151584526001810154602085015260028101546040850152600560038201549182606087015260ff600482015460018060a01b038116608089015260a01c16151560a0870152015460c08501526024356135f4565b04611d6c611d638260243561361d565b91600f5461362a565b600f55600e5491604051923360601b60208501526001600160601b03198560601b16603485015260243560488501524260688501526088840152608883528260c08101106001600160401b0360c085011117610c825760c083016040528251602084012092611ddd60c08201613202565b3360c08201526001600160a01b03851660e082015261010081018390527f00000000000000000000000000000000000000000000000000000000000000006001600160401b0316610120820152426101408201526000610160820181905261018082018190526101a0820152611e5460443561330f565b6044356101c08201528360005260056020526101c06008604060002060018060a01b0360c0850151166001600160601b0360a01b9081835416178255600182019060018060a01b0360e087015116908254161790556101008401516002820155600381016001600160401b03610120860151166001600160401b03198254161790556101408401516004820155610160840151611ef08161330f565b611ef98161330f565b60ff8019600584015416911617600582015561018084015160068201556101a0840151600782015501910151611f2e8161330f565b611f378161330f565b60ff80198354169116179055336000526008602052611fb960076040600020611f6185825461362a565b815560028101611f718154613637565b905560018060a01b038716600052600381016020526040600020611f9686825461362a565b905542600582015501805460ff191660ff60643515151617815560443590613646565b33600052600a602052604060002060018060a01b0385166000526020526040600020611fe683825461362a565b905560018060a01b038416600052600b602052604060002061200983825461362a565b9055612020612018838661395e565b600c5461362a565b600c5561202e600e54613637565b600e5560125490600160401b821015610c825761205382600160a094016012556133a8565b81549060031b9086821b91600019901b19161790556040518381526001600160401b037f0000000000000000000000000000000000000000000000000000000000000000166020820152600180841b03861690857fee10966589919c664f7519afb64136512e6b2dd544e31b71ea57e2387063ccf660403393a4015115158061264b575b612510575b604051926120e984613239565b6001845260005b602081106124eb575060405161210581613239565b6001600160a01b03821681526020810183905261212185613740565b5261212b84613740565b506121be6040519460018060a01b037f00000000000000000000000000000000000000000000000000000000000000001660208701526020865261216e86613239565b6121cc60405186602082015233604082015260018060a01b0385166060820152856080820152608081526121a18161326f565b6040519384916000602084015260408084015260608301906132ea565b03601f1981018452836132a6565b6121e66040516121db81613254565b620493e0815261384d565b91604051966121f48861326f565b87526020870152604086015260018060a01b037f0000000000000000000000000000000000000000000000000000000000000000166060860152608085015260405163b0f479a160e01b8152602081600481305afa908115610774576000916124cc575b506040516320487ded60e01b815260208180612298897f00000000000000000000000000000000000000000000000000000000000000006004840161376c565b03816001600160a01b0386165afa9081156107745760009161249a575b5060405163095ea7b360e01b81526001600160a01b03838116600483015260248201869052909360209185916044918391600091165af1908115610774576123309360209261247d575b5060405163095ea7b360e01b81526001600160a01b0384166004820152602481019190915292839081906044820190565b038160007f00000000000000000000000000000000000000000000000000000000000000006001600160a01b03165af1908115610774576000956020936123b493612460575b506040519687809481936396f4e9f960e01b83527f00000000000000000000000000000000000000000000000000000000000000006004840161376c565b03926001600160a01b03165af180156107745760009061242d575b602093508260005260058452806006604060002060058101600260ff198254161790550155604051918252827f898814bfce74a72059cf0ffe60f3c7c2af15d53a80b9b7bc889a95dcc60cc02c853394a46001600255604051908152f35b506020833d602011612458575b81612447602093836132a6565b810103126103eb57602092516123cf565b3d915061243a565b61247690853d87116107a65761079781836132a6565b5087612376565b61249390833d85116107a65761079781836132a6565b50876122ff565b90506020813d6020116124c4575b816124b5602093836132a6565b810103126103eb5751866122b5565b3d91506124a8565b6124e5915060203d602011610805576107f781836132a6565b85612258565b6020906040516124fa81613239565b60008152600083820152828288010152016120f0565b336000526008602052604060002060018060a01b038416600052600660205260c060406000206040516125428161321e565b60ff82541615158152600182015460208201526002820154604082015260038201546060820152600560ff600484015460018060a01b038116608085015260a01c161515928360a0840152015492839101526125a0575b50506120dc565b6305f5e1006125d46004926127106125b960443561330f565b6044356125ff57506125cf611f40915b876135f4565b6135f4565b049160018060a01b038616600052016020526125f6604060002091825461362a565b90558380612599565b61260a60443561330f565b60443560010361262157506125cf612710916125c9565b9061262d60443561330f565b600260443514612641575b6125cf906125c9565b613a989150612638565b5061265760443561330f565b60443515156120d7565b604490604051906338e65e3960e11b825260243560048301526024820152fd5b60449060405190630da801c760e31b825260243560048301526024820152fd5b6040516306439c6b60e01b81526001600160a01b039091166004820152602490fd5b346103eb5760003660031901126103eb576126dc61349d565b6126e46136c1565b600160ff1960035416176003557f62e78cea01bee320cd4e420270b5ea74000d11b0c9f74754ebdbfc544b05a2586020604051338152a1005b346103eb5760003660031901126103eb5761273661349d565b60035460ff8116156127755760ff19166003557f5db9ee0a495bf2e6ff9c91a7834c1ba4fdd244a5e8aa4e537bd38aeae4b073aa6020604051338152a1005b604051638dfc202b60e01b8152600490fd5b346103eb5760203660031901126103eb576101206040516127a781613202565b6000815260006020820152600060408201526000606082015260006080820152600060a0820152600060c0820152600060e082015260006101008092015260043560005260056020526040600020906040519161280383613202565b8260018060a01b03918281541682528260018201541692602083019384526002820154604084019081526001600160401b0380600385015416606086019081526004850154926080870193845260ff6005870154169460a08801956128678161330f565b865260ff600860068901549860c08b01998a5260e060078201549b019a8b52015416988a8c01996128978161330f565b8a52816040519c51168c52511660208b01525160408a015251166060880152516080870152516128c68161330f565b60a08601525160c08501525160e084015251906128e28261330f565b820152f35b346103eb5760606128f736613352565b90809291810103126103eb576040816129126129269361339b565b5061291f6020820161339b565b500161339b565b5042601055005b346103eb5760003660031901126103eb576020604051620151808152f35b346103eb5760203660031901126103eb576004356000526005602052610120604060002060018060a01b039081815416916001820154169060028101546001600160401b03600383015416600483015460ff6005850154169160068501549360ff60086007880154970154169660405198895260208901526040880152606087015260808601526129db8161330f565b60a085015260c084015260e08301526129f38161330f565b610100820152f35b346103eb5760403660031901126103eb57612a1461311c565b336001600160a01b03821603612a3057610d3a9060043561357d565b60405163334bd91960e11b8152600490fd5b346103eb5760003660031901126103eb5760206040517ffc8737ab85eb45125971625a9ebdb75cc78e01d5c1fa80c4c6e5203f47bc4fab8152f35b346103eb5760403660031901126103eb5760043560058110156103eb5760243590612aa66136c1565b81158015612b3b575b612b225733600052600860205260406000209160066007840193612adb8460ff875460081c1696613646565b015560405191612aea8161330f565b8252612af58161330f565b60208201527f1a9f1504564113950d1385b9c4a846e1d90abd34d7022a8a3993c75be416e33960403392a2005b6040516333639c6560e11b815260048101839052602490fd5b50600a8211612aaf565b346103eb5760403660031901126103eb57610d3a600435612b6461311c565b90806000526004602052612b7f6001604060002001546134d7565b6134fd565b346103eb5760003660031901126103eb576020601054604051908152f35b346103eb5760203660031901126103eb5760043560005260046020526020600160406000200154604051908152f35b346103eb5760003660031901126103eb576020601154604051908152f35b346103eb5760a03660031901126103eb57612c08613106565b60243560443560643592612c1a61349d565b6001600160a01b031660008181526006602052604090205490929060ff16156114215761111c84612c716103e87fda3ebad850b451858e5bce04ae8424df09b3822e04d19cac5fe9808ea49ef18496971115613a9e565b85600052600660205260406000208360018201558460028201558160038201556005608435910155604051938493846040919493926060820195825260208201520152565b346103eb5760003660031901126103eb576020604051620f42408152f35b346103eb5760203660031901126103eb5760e06001600160a01b0380612cf8613106565b16600052600660205260406000209060ff80835416926001810154926002820154600383015490600560048501549401549560405197151588526020880152604087015260608601528116608085015260a01c16151560a083015260c0820152f35b346103eb5760003660031901126103eb576020600f54604051908152f35b346103eb5760403660031901126103eb57612d91613106565b602435612d9c61349d565b600f5491828211612dc757612db482610d3a9461361d565b600f5533906001600160a01b0316613700565b60405162461bcd60e51b8152602060048201526011602482015270496e73756666696369656e74206665657360781b6044820152606490fd5b346103eb5760203660031901126103eb576004356000526007602052612e83604060002060405190612e3d82612e36818461316c565b03836132a6565b60018060a01b03600182015416906002810154906003810154600482015460ff600584015416916007600685015494015494604051988998610100808b528a01906132ea565b966020890152604088015260608701526080860152151560a085015260c084015260e08301520390f35b346103eb576020806003193601126103eb57612ec7613106565b6012546001600160a01b039182169160009190825b828110612fe75750612f06612ef084613486565b93612efe60405195866132a6565b808552613486565b8386019490601f190136863760009060005b848110612f6257878688604051928392818401908285525180915260408401929160005b828110612f4b57505050500390f35b835185528695509381019392810192600101612f3c565b612f6b816133a8565b9054600391821b1c600052600590818a5283866040600020541614612f9b575b5050612f9690613637565b612f18565b612fa68395936133a8565b9054911b1c918751811015612fd157612f96928a82612fc9941b8a010152613637565b929089612f8b565b634e487b7160e01b600052603260045260246000fd5b612ff0816133a8565b90549060031b1c600052600586528482604060002054161461301b575b61301690613637565b612edc565b9261302861301691613637565b93905061300d565b346103eb5760403660031901126103eb57613049613106565b61305161311c565b9060018060a01b03809116600052600a602052604060002091166000526020526020604060002054604051908152f35b346103eb5760203660031901126103eb576004359063ffffffff60e01b82168092036103eb576020916385572ffb60e01b81149081156130f5575b81156130ca575b5015158152f35b637965db0b60e01b8114915081156130e4575b50836130c3565b6301ffc9a760e01b149050836130dd565b6301ffc9a760e01b811491506130bc565b600435906001600160a01b03821682036103eb57565b602435906001600160a01b03821682036103eb57565b90600182811c92168015613162575b602083101461314c57565b634e487b7160e01b600052602260045260246000fd5b91607f1691613141565b906000929180549161317d83613132565b9182825260019384811690816000146131df575060011461319f575b50505050565b90919394506000526020928360002092846000945b8386106131cb575050505001019038808080613199565b8054858701830152940193859082016131b4565b9294505050602093945060ff191683830152151560051b01019038808080613199565b61012081019081106001600160401b03821117610c8257604052565b60e081019081106001600160401b03821117610c8257604052565b604081019081106001600160401b03821117610c8257604052565b602081019081106001600160401b03821117610c8257604052565b60a081019081106001600160401b03821117610c8257604052565b61010081019081106001600160401b03821117610c8257604052565b90601f801991011681019081106001600160401b03821117610c8257604052565b60005b8381106132da5750506000910152565b81810151838201526020016132ca565b90602091613303815180928185528580860191016132c7565b601f01601f1916010190565b6005111561128b57565b93909796959260c0959260e086019986526020860152604085015260608401526080830152151560a082015261334e8361330f565b0152565b9060206003198301126103eb576004356001600160401b03928382116103eb57806023830112156103eb5781600401359384116103eb57602484830101116103eb576024019190565b359081151582036103eb57565b601254811015612fd15760126000527fbb8a6a4669ba250d26cd7a459eca9d215f8307e33aebe50379bc5a3617ec34440190600090565b601354811015612fd15760136000527f66de8ffda797e3de9c05e8fc57b3bf0ec28a930d40b0d285d93c06501cf6a0900190600090565b6001600160401b038111610c8257601f01601f191660200190565b92919261343d82613416565b9161344b60405193846132a6565b8294818452818301116103eb578281602093846000960137010152565b9080601f830112156103eb5781602061348393359101613431565b90565b6001600160401b038111610c825760051b60200190565b3360009081527f17ef568e3e12ab5b9c7254a8d58478811de00f9e6eb34345acd53bf8fd09d3ec602052604081205460ff1615610cdd5750565b80600052600460205260406000203360005260205260ff6040600020541615610cdd5750565b906000918083526004602052604083209160018060a01b03169182845260205260ff604084205416156000146135785780835260046020526040832082845260205260408320600160ff198254161790557f2f8788117e7eff1d82e926ec794901d17c78024a50270940304540a733656f0d339380a4600190565b505090565b906000918083526004602052604083209160018060a01b03169182845260205260ff604084205416600014613578578083526004602052604083208284526020526040832060ff1981541690557ff6391f5c32d9c69d2a47ea670b442974b53935d1edc7fd64eb21e047a839171b339380a4600190565b8181029291811591840414171561360757565b634e487b7160e01b600052601160045260246000fd5b9190820391821161360757565b9190820180921161360757565b60001981146136075760010190565b906136508161330f565b61ff0082549160081b169061ff001916179055565b906000602091828151910182855af115610774576000513d6136b857506001600160a01b0381163b155b6136965750565b604051635274afe760e01b81526001600160a01b039091166004820152602490fd5b6001141561368f565b60ff600354166136cd57565b60405163d93c066560e01b8152600490fd5b60028054146136ee5760028055565b604051633ee5aeb560e01b8152600490fd5b60405163a9059cbb60e01b60208201526001600160a01b039092166024830152604482019290925261373e9161373982606481016121be565b613665565b565b805115612fd15760200190565b908160209103126103eb57516001600160a01b03811681036103eb5790565b906001600160401b03909392931681526040602091818382015261379b855160a08484015260e08301906132ea565b916137b78487015193603f1994858583030160608601526132ea565b8187015194848483030160808501528080875193848152019601926000905b83821061380c57505050505060c06080613483959660018060a01b0360608201511660a0850152015192828503019101526132ea565b845180516001600160a01b031689528301518884015296870196938201936001909101906137d6565b908160209103126103eb575180151581036103eb5790565b604051906397a657c960e01b602083015251602482015260248152606081018181106001600160401b03821117610c825760405290565b9060018060a01b03806000931683526008602052806040842092169182845260066020526040842060c0600560ff604051956138bf8761321e565b81855416151587526001850154602088015260028501546040880152600385015460608801526004850154908116608088015260a01c161592831560a0870152015493019283526139415761393d9291604064496cebb8009560038461392c60056125cf9701544261361d565b9683520160205220549051906135f4565b0490565b50505090565b519069ffffffffffffffffffff821682036103eb57565b9060018060a01b03806000931683526006602052604083206040516139828161321e565b60ff8254161515815260018201546020820152600282015460408201526003820154606082015260c0600560048401549485169384608085015260ff60a096871c1615158685015201549101528015613941578160049160405192838092633fabe5a360e21b82525afa918215613a93578492613a40575b5050613a05916135f4565b906402540be40091828102928184041490151715613a2c5750670de0b6b3a7640000900490565b634e487b7160e01b81526011600452602490fd5b90809250813d8311613a8c575b613a5781836132a6565b81010312613a88579081613a6d613a0593613947565b50613a7f608060208301519201613947565b509091386139fa565b8280fd5b503d613a4d565b6040513d86823e3d90fd5b15613aa557565b60405162461bcd60e51b815260206004820152600c60248201526b08ccaca40e8dede40d0d2ced60a31b6044820152606490fdfea2646970667358221220a0b73803dae2a6059d43543ef52703ddf844d9ccb64fa05a3d9cb34045ae7b2464736f6c634300081400332f8788117e7eff1d82e926ec794901d17c78024a50270940304540a733656f0d",
  "linkReferences": {},
  "deployedLinkReferences": {}
}